{
  "_format": "hh-sol-artifact-1",
  "contractName": "RoboTrustCRUT",
  "sourceName": "contracts/RoboTrustCRUT.sol",
  "abi": [
    {
      "inputs": [
        {
          "internalType": "address",
          "name": "_owner",
          "type": "address"
        },
        {
          "internalType": "address",
          "name": "_annuant",
          "type": "address"
        },
        {
          "internalType": "address",
          "name": "_trustee",
          "type": "address"
        },
        {
          "internalType": "address",
          "name": "_charity",
          "type": "address"
        },
        {
          "internalType": "uint256",
          "name": "_period",
          "type": "uint256"
        },
        {
          "internalType": "uint16",
          "name": "_numYears",
          "type": "uint16"
        },
        {
          "internalType": "uint256",
          "name": "_paymentPercent",
          "type": "uint256"
        },
        {
          "internalType": "address",
          "name": "_priceFeedAddress",
          "type": "address"
        }
      ],
      "stateMutability": "payable",
      "type": "constructor"
    },
    {
      "inputs": [
        {
          "internalType": "address",
          "name": "_newBeneficiary",
          "type": "address"
        }
      ],
      "name": "changeBeneficiary",
      "outputs": [],
      "stateMutability": "nonpayable",
      "type": "function"
    },
    {
      "inputs": [
        {
          "internalType": "address",
          "name": "_newTrustee",
          "type": "address"
        }
      ],
      "name": "changeTrustee",
      "outputs": [],
      "stateMutability": "nonpayable",
      "type": "function"
    },
    {
      "inputs": [],
      "name": "checkUpkeep",
      "outputs": [
        {
          "internalType": "bool",
          "name": "upkeepNeeded",
          "type": "bool"
        }
      ],
      "stateMutability": "view",
      "type": "function"
    },
    {
      "inputs": [],
      "name": "getCharityAddress",
      "outputs": [
        {
          "internalType": "address",
          "name": "",
          "type": "address"
        }
      ],
      "stateMutability": "view",
      "type": "function"
    },
    {
      "inputs": [],
      "name": "getLastEthPriceUSD",
      "outputs": [
        {
          "internalType": "uint256",
          "name": "",
          "type": "uint256"
        },
        {
          "internalType": "uint80",
          "name": "",
          "type": "uint80"
        },
        {
          "internalType": "uint256",
          "name": "",
          "type": "uint256"
        }
      ],
      "stateMutability": "view",
      "type": "function"
    },
    {
      "inputs": [],
      "name": "getOwnerAddress",
      "outputs": [
        {
          "internalType": "address",
          "name": "",
          "type": "address"
        }
      ],
      "stateMutability": "view",
      "type": "function"
    },
    {
      "inputs": [
        {
          "internalType": "uint256",
          "name": "_usdAmountDegree18",
          "type": "uint256"
        }
      ],
      "name": "getPaymentEthAmount",
      "outputs": [
        {
          "components": [
            {
              "internalType": "uint256",
              "name": "ethPaid",
              "type": "uint256"
            },
            {
              "internalType": "uint256",
              "name": "paymentTimestamp",
              "type": "uint256"
            },
            {
              "internalType": "uint256",
              "name": "ethPrice",
              "type": "uint256"
            },
            {
              "internalType": "uint256",
              "name": "priceRound",
              "type": "uint256"
            },
            {
              "internalType": "uint256",
              "name": "priceTimestamp",
              "type": "uint256"
            },
            {
              "internalType": "uint256",
              "name": "usdPaymentAmount",
              "type": "uint256"
            }
          ],
          "internalType": "struct FinancialMathHelper.Payment",
          "name": "",
          "type": "tuple"
        }
      ],
      "stateMutability": "view",
      "type": "function"
    },
    {
      "inputs": [],
      "name": "getTrustData",
      "outputs": [
        {
          "internalType": "address",
          "name": "",
          "type": "address"
        },
        {
          "internalType": "address",
          "name": "",
          "type": "address"
        },
        {
          "internalType": "address",
          "name": "",
          "type": "address"
        },
        {
          "internalType": "address",
          "name": "",
          "type": "address"
        },
        {
          "internalType": "uint256",
          "name": "",
          "type": "uint256"
        },
        {
          "internalType": "uint256",
          "name": "",
          "type": "uint256"
        },
        {
          "internalType": "bool",
          "name": "",
          "type": "bool"
        },
        {
          "components": [
            {
              "internalType": "uint256",
              "name": "ethPaid",
              "type": "uint256"
            },
            {
              "internalType": "uint256",
              "name": "paymentTimestamp",
              "type": "uint256"
            },
            {
              "internalType": "uint256",
              "name": "ethPrice",
              "type": "uint256"
            },
            {
              "internalType": "uint256",
              "name": "priceRound",
              "type": "uint256"
            },
            {
              "internalType": "uint256",
              "name": "priceTimestamp",
              "type": "uint256"
            },
            {
              "internalType": "uint256",
              "name": "usdPaymentAmount",
              "type": "uint256"
            }
          ],
          "internalType": "struct FinancialMathHelper.Payment",
          "name": "",
          "type": "tuple"
        },
        {
          "internalType": "uint256",
          "name": "",
          "type": "uint256"
        },
        {
          "components": [
            {
              "internalType": "uint256",
              "name": "ethPaid",
              "type": "uint256"
            },
            {
              "internalType": "uint256",
              "name": "paymentTimestamp",
              "type": "uint256"
            },
            {
              "internalType": "uint256",
              "name": "ethPrice",
              "type": "uint256"
            },
            {
              "internalType": "uint256",
              "name": "priceRound",
              "type": "uint256"
            },
            {
              "internalType": "uint256",
              "name": "priceTimestamp",
              "type": "uint256"
            },
            {
              "internalType": "uint256",
              "name": "usdPaymentAmount",
              "type": "uint256"
            }
          ],
          "internalType": "struct FinancialMathHelper.Payment[]",
          "name": "",
          "type": "tuple[]"
        }
      ],
      "stateMutability": "view",
      "type": "function"
    },
    {
      "inputs": [],
      "name": "getTrusteeAddress",
      "outputs": [
        {
          "internalType": "address",
          "name": "",
          "type": "address"
        }
      ],
      "stateMutability": "view",
      "type": "function"
    },
    {
      "inputs": [
        {
          "internalType": "uint256",
          "name": "_ethAmountWei",
          "type": "uint256"
        }
      ],
      "name": "getUSDValue",
      "outputs": [
        {
          "internalType": "uint256",
          "name": "",
          "type": "uint256"
        },
        {
          "internalType": "uint256",
          "name": "",
          "type": "uint256"
        },
        {
          "internalType": "uint80",
          "name": "",
          "type": "uint80"
        },
        {
          "internalType": "uint256",
          "name": "",
          "type": "uint256"
        }
      ],
      "stateMutability": "view",
      "type": "function"
    },
    {
      "inputs": [],
      "name": "liquidate",
      "outputs": [],
      "stateMutability": "nonpayable",
      "type": "function"
    },
    {
      "inputs": [],
      "name": "performUpkeep",
      "outputs": [],
      "stateMutability": "nonpayable",
      "type": "function"
    },
    {
      "inputs": [],
      "name": "terminated",
      "outputs": [
        {
          "internalType": "bool",
          "name": "",
          "type": "bool"
        }
      ],
      "stateMutability": "view",
      "type": "function"
    }
  ],
  "bytecode": "0x60e06040526040516200296c3803806200296c8339818101604052810190620000299190620005d3565b80806000806101000a81548173ffffffffffffffffffffffffffffffffffffffff021916908373ffffffffffffffffffffffffffffffffffffffff160217905550508473ffffffffffffffffffffffffffffffffffffffff168873ffffffffffffffffffffffffffffffffffffffff161415620000dd576040517f08c379a0000000000000000000000000000000000000000000000000000000008152600401620000d49062000723565b60405180910390fd5b8473ffffffffffffffffffffffffffffffffffffffff168673ffffffffffffffffffffffffffffffffffffffff1614156200014f576040517f08c379a00000000000000000000000000000000000000000000000000000000081526004016200014690620007bb565b60405180910390fd5b603282101580156200016357506101f48211155b620001a5576040517f08c379a00000000000000000000000000000000000000000000000000000000081526004016200019c9062000853565b60405180910390fd5b33600560006101000a81548173ffffffffffffffffffffffffffffffffffffffff021916908373ffffffffffffffffffffffffffffffffffffffff16021790555087600160006101000a81548173ffffffffffffffffffffffffffffffffffffffff021916908373ffffffffffffffffffffffffffffffffffffffff16021790555086600260006101000a81548173ffffffffffffffffffffffffffffffffffffffff021916908373ffffffffffffffffffffffffffffffffffffffff16021790555085600360006101000a81548173ffffffffffffffffffffffffffffffffffffffff021916908373ffffffffffffffffffffffffffffffffffffffff16021790555084600460006101000a81548173ffffffffffffffffffffffffffffffffffffffff021916908373ffffffffffffffffffffffffffffffffffffffff1602179055506000600960006101000a81548160ff02191690831515021790555083608081815250508261ffff16600881905550426006819055508160c081815250506000806000806200033e34620003da60201b60201c565b935069ffffffffffffffffffff169350935093506040518060c0016040528034815260200142815260200184815260200183815260200182815260200185815250600a600082015181600001556020820151816001015560408201518160020155606082015181600301556080820151816004015560a082015181600501559050504260a0818152505050505050505050505050505062000a76565b6000806000806000806000620003f56200043b60201b60201c565b925092509250600083905060006305f5e1008a83620004159190620008a4565b62000421919062000934565b905080828585985098509850985050505050509193509193565b60008060008060008060008054906101000a900473ffffffffffffffffffffffffffffffffffffffff1673ffffffffffffffffffffffffffffffffffffffff1663feaf968c6040518163ffffffff1660e01b815260040160a060405180830381865afa158015620004b0573d6000803e3d6000fd5b505050506040513d601f19601f82011682018060405250810190620004d69190620009ee565b5093505092509250818382955095509550505050909192565b600080fd5b600073ffffffffffffffffffffffffffffffffffffffff82169050919050565b60006200052182620004f4565b9050919050565b620005338162000514565b81146200053f57600080fd5b50565b600081519050620005538162000528565b92915050565b6000819050919050565b6200056e8162000559565b81146200057a57600080fd5b50565b6000815190506200058e8162000563565b92915050565b600061ffff82169050919050565b620005ad8162000594565b8114620005b957600080fd5b50565b600081519050620005cd81620005a2565b92915050565b600080600080600080600080610100898b031215620005f757620005f6620004ef565b5b6000620006078b828c0162000542565b98505060206200061a8b828c0162000542565b97505060406200062d8b828c0162000542565b9650506060620006408b828c0162000542565b9550506080620006538b828c016200057d565b94505060a0620006668b828c01620005bc565b93505060c0620006798b828c016200057d565b92505060e06200068c8b828c0162000542565b9150509295985092959890939650565b600082825260208201905092915050565b7f4772616e746f722063616e6e6f7420616c736f206265207468652062656e656660008201527f6963696172790000000000000000000000000000000000000000000000000000602082015250565b60006200070b6026836200069c565b91506200071882620006ad565b604082019050919050565b600060208201905081810360008301526200073e81620006fc565b9050919050565b7f42656e65666963696172792063616e6e6f7420616c736f20626520746865205460008201527f7275737465650000000000000000000000000000000000000000000000000000602082015250565b6000620007a36026836200069c565b9150620007b08262000745565b604082019050919050565b60006020820190508181036000830152620007d68162000794565b9050919050565b7f5061796d656e742050657263656e74616765206d75737420626520626574776560008201527f656e20352520616e642035302500000000000000000000000000000000000000602082015250565b60006200083b602d836200069c565b91506200084882620007dd565b604082019050919050565b600060208201905081810360008301526200086e816200082c565b9050919050565b7f4e487b7100000000000000000000000000000000000000000000000000000000600052601160045260246000fd5b6000620008b18262000559565b9150620008be8362000559565b9250817fffffffffffffffffffffffffffffffffffffffffffffffffffffffffffffffff0483118215151615620008fa57620008f962000875565b5b828202905092915050565b7f4e487b7100000000000000000000000000000000000000000000000000000000600052601260045260246000fd5b6000620009418262000559565b91506200094e8362000559565b92508262000961576200096062000905565b5b828204905092915050565b600069ffffffffffffffffffff82169050919050565b6200098d816200096c565b81146200099957600080fd5b50565b600081519050620009ad8162000982565b92915050565b6000819050919050565b620009c881620009b3565b8114620009d457600080fd5b50565b600081519050620009e881620009bd565b92915050565b600080600080600060a0868803121562000a0d5762000a0c620004ef565b5b600062000a1d888289016200099c565b955050602062000a3088828901620009d7565b945050604062000a43888289016200057d565b935050606062000a56888289016200057d565b925050608062000a69888289016200099c565b9150509295509295909350565b60805160a05160c051611ebb62000ab16000396000818161060b0152610d6601526000505060008181610cfd0152610f150152611ebb6000f3fe608060405234801561001057600080fd5b50600436106100cf5760003560e01c8063324716d61161008c578063a13abdad11610066578063a13abdad146101d6578063dc070657146101f4578063fbf9096a14610210578063fcd2239614610230576100cf565b8063324716d61461017d578063517d5e4e146101995780636e4d243a146101cc576100cf565b80630c4f65bd146100d4578063116692f9146100f2578063194307bf146101195780631ad063931461013757806328a070251461015557806328a6b1d51461015f575b600080fd5b6100dc610260565b6040516100e9919061149b565b60405180910390f35b6100fa6103ec565b6040516101109a9998979695949392919061169e565b60405180910390f35b61012161072b565b60405161012e9190611741565b60405180910390f35b61013f61073e565b60405161014c919061149b565b60405180910390f35b61015d6108ca565b005b610167610a46565b604051610174919061149b565b60405180910390f35b6101976004803603810190610192919061178d565b610bd2565b005b6101b360048036038101906101ae91906117e6565b610ca6565b6040516101c39493929190611838565b60405180910390f35b6101d4610cfb565b005b6101de610f11565b6040516101eb9190611741565b60405180910390f35b61020e6004803603810190610209919061178d565b610f70565b005b610218611044565b6040516102279392919061187d565b60405180910390f35b61024a600480360381019061024591906117e6565b6110f5565b60405161025791906118b4565b60405180910390f35b6000600160009054906101000a900473ffffffffffffffffffffffffffffffffffffffff1673ffffffffffffffffffffffffffffffffffffffff163373ffffffffffffffffffffffffffffffffffffffff16148061030b5750600360009054906101000a900473ffffffffffffffffffffffffffffffffffffffff1673ffffffffffffffffffffffffffffffffffffffff163373ffffffffffffffffffffffffffffffffffffffff16145b806103635750600560009054906101000a900473ffffffffffffffffffffffffffffffffffffffff1673ffffffffffffffffffffffffffffffffffffffff163373ffffffffffffffffffffffffffffffffffffffff16145b806103bb5750600460009054906101000a900473ffffffffffffffffffffffffffffffffffffffff1673ffffffffffffffffffffffffffffffffffffffff163373ffffffffffffffffffffffffffffffffffffffff16145b6103c457600080fd5b600160009054906101000a900473ffffffffffffffffffffffffffffffffffffffff16905090565b60008060008060008060006103ff611424565b60006060600160009054906101000a900473ffffffffffffffffffffffffffffffffffffffff1673ffffffffffffffffffffffffffffffffffffffff163373ffffffffffffffffffffffffffffffffffffffff1614806104ac5750600360009054906101000a900473ffffffffffffffffffffffffffffffffffffffff1673ffffffffffffffffffffffffffffffffffffffff163373ffffffffffffffffffffffffffffffffffffffff16145b806105045750600560009054906101000a900473ffffffffffffffffffffffffffffffffffffffff1673ffffffffffffffffffffffffffffffffffffffff163373ffffffffffffffffffffffffffffffffffffffff16145b8061055c5750600460009054906101000a900473ffffffffffffffffffffffffffffffffffffffff1673ffffffffffffffffffffffffffffffffffffffff163373ffffffffffffffffffffffffffffffffffffffff16145b61056557600080fd5b600160009054906101000a900473ffffffffffffffffffffffffffffffffffffffff16600260009054906101000a900473ffffffffffffffffffffffffffffffffffffffff16600360009054906101000a900473ffffffffffffffffffffffffffffffffffffffff16600460009054906101000a900473ffffffffffffffffffffffffffffffffffffffff16600654600854600960009054906101000a900460ff16600a7f00000000000000000000000000000000000000000000000000000000000000006010826040518060c00160405290816000820154815260200160018201548152602001600282015481526020016003820154815260200160048201548152602001600582015481525050925080805480602002602001604051908101604052809291908181526020016000905b8282101561070557838290600052602060002090600602016040518060c0016040529081600082015481526020016001820154815260200160028201548152602001600382015481526020016004820154815260200160058201548152505081526020019060010190610697565b505050509050995099509950995099509950995099509950995090919293949596979899565b600960009054906101000a900460ff1681565b6000600160009054906101000a900473ffffffffffffffffffffffffffffffffffffffff1673ffffffffffffffffffffffffffffffffffffffff163373ffffffffffffffffffffffffffffffffffffffff1614806107e95750600360009054906101000a900473ffffffffffffffffffffffffffffffffffffffff1673ffffffffffffffffffffffffffffffffffffffff163373ffffffffffffffffffffffffffffffffffffffff16145b806108415750600560009054906101000a900473ffffffffffffffffffffffffffffffffffffffff1673ffffffffffffffffffffffffffffffffffffffff163373ffffffffffffffffffffffffffffffffffffffff16145b806108995750600460009054906101000a900473ffffffffffffffffffffffffffffffffffffffff1673ffffffffffffffffffffffffffffffffffffffff163373ffffffffffffffffffffffffffffffffffffffff16145b6108a257600080fd5b600460009054906101000a900473ffffffffffffffffffffffffffffffffffffffff16905090565b600360009054906101000a900473ffffffffffffffffffffffffffffffffffffffff1673ffffffffffffffffffffffffffffffffffffffff163373ffffffffffffffffffffffffffffffffffffffff161461095a576040517f08c379a000000000000000000000000000000000000000000000000000000000815260040161095190611952565b60405180910390fd5b6000600360009054906101000a900473ffffffffffffffffffffffffffffffffffffffff1673ffffffffffffffffffffffffffffffffffffffff16476040516109a2906119a3565b60006040518083038185875af1925050503d80600081146109df576040519150601f19603f3d011682016040523d82523d6000602084013e6109e4565b606091505b5050905080610a28576040517f08c379a0000000000000000000000000000000000000000000000000000000008152600401610a1f90611a04565b60405180910390fd5b6001600960006101000a81548160ff02191690831515021790555050565b6000600160009054906101000a900473ffffffffffffffffffffffffffffffffffffffff1673ffffffffffffffffffffffffffffffffffffffff163373ffffffffffffffffffffffffffffffffffffffff161480610af15750600360009054906101000a900473ffffffffffffffffffffffffffffffffffffffff1673ffffffffffffffffffffffffffffffffffffffff163373ffffffffffffffffffffffffffffffffffffffff16145b80610b495750600560009054906101000a900473ffffffffffffffffffffffffffffffffffffffff1673ffffffffffffffffffffffffffffffffffffffff163373ffffffffffffffffffffffffffffffffffffffff16145b80610ba15750600460009054906101000a900473ffffffffffffffffffffffffffffffffffffffff1673ffffffffffffffffffffffffffffffffffffffff163373ffffffffffffffffffffffffffffffffffffffff16145b610baa57600080fd5b600360009054906101000a900473ffffffffffffffffffffffffffffffffffffffff16905090565b600360009054906101000a900473ffffffffffffffffffffffffffffffffffffffff1673ffffffffffffffffffffffffffffffffffffffff163373ffffffffffffffffffffffffffffffffffffffff1614610c62576040517f08c379a0000000000000000000000000000000000000000000000000000000008152600401610c5990611a96565b60405180910390fd5b80600360006101000a81548173ffffffffffffffffffffffffffffffffffffffff021916908373ffffffffffffffffffffffffffffffffffffffff16021790555050565b6000806000806000806000610cb9611044565b925092509250600083905060006305f5e1008a83610cd79190611ae5565b610ce19190611b6e565b905080828585985098509850985050505050509193509193565b7f000000000000000000000000000000000000000000000000000000000000000060065442610d2a9190611b9f565b118015610d3a5750600854600754105b8015610d535750600960009054906101000a900460ff16155b15610f0f574260068190555060006103e87f000000000000000000000000000000000000000000000000000000000000000047610d909190611ae5565b610d9a9190611b6e565b9050600080600080610dab85610ca6565b935069ffffffffffffffffffff1693509350935060006040518060c00160405280878152602001428152602001858152602001848152602001838152602001868152509050610df98161117f565b60085460075410610ed4576000600460009054906101000a900473ffffffffffffffffffffffffffffffffffffffff1673ffffffffffffffffffffffffffffffffffffffff1647604051610e4c906119a3565b60006040518083038185875af1925050503d8060008114610e89576040519150601f19603f3d011682016040523d82523d6000602084013e610e8e565b606091505b5050905080610ed2576040517f08c379a0000000000000000000000000000000000000000000000000000000008152600401610ec990611c1f565b60405180910390fd5b505b600854600754101580610ee75750600047145b15610f08576001600960006101000a81548160ff0219169083151502179055505b5050505050505b565b60007f000000000000000000000000000000000000000000000000000000000000000060065442610f429190611b9f565b118015610f525750600854600754105b8015610f6b5750600960009054906101000a900460ff16155b905090565b600360009054906101000a900473ffffffffffffffffffffffffffffffffffffffff1673ffffffffffffffffffffffffffffffffffffffff163373ffffffffffffffffffffffffffffffffffffffff1614611000576040517f08c379a0000000000000000000000000000000000000000000000000000000008152600401610ff790611cb1565b60405180910390fd5b80600360006101000a81548173ffffffffffffffffffffffffffffffffffffffff021916908373ffffffffffffffffffffffffffffffffffffffff16021790555050565b60008060008060008060008054906101000a900473ffffffffffffffffffffffffffffffffffffffff1673ffffffffffffffffffffffffffffffffffffffff1663feaf968c6040518163ffffffff1660e01b815260040160a060405180830381865afa1580156110b8573d6000803e3d6000fd5b505050506040513d601f19601f820116820180604052508101906110dc9190611d48565b5093505092509250818382955095509550505050909192565b6110fd611424565b6000829050600080600061110f611044565b9250925092506000836305f5e100866111289190611ae5565b6111329190611b6e565b905060006040518060c001604052808381526020014281526020018681526020018569ffffffffffffffffffff168152602001848152602001898152509050809650505050505050919050565b47816000015111156112c9576000600260009054906101000a900473ffffffffffffffffffffffffffffffffffffffff1673ffffffffffffffffffffffffffffffffffffffff16476040516111d3906119a3565b60006040518083038185875af1925050503d8060008114611210576040519150601f19603f3d011682016040523d82523d6000602084013e611215565b606091505b5050905080611259576040517f08c379a000000000000000000000000000000000000000000000000000000000815260040161125090611e0f565b60405180910390fd5b6010829080600181540180825580915050600190039060005260206000209060060201600090919091909150600082015181600001556020820151816001015560408201518160020155606082015181600301556080820151816004015560a08201518160050155505050611407565b6000600260009054906101000a900473ffffffffffffffffffffffffffffffffffffffff1673ffffffffffffffffffffffffffffffffffffffff168260000151604051611315906119a3565b60006040518083038185875af1925050503d8060008114611352576040519150601f19603f3d011682016040523d82523d6000602084013e611357565b606091505b505090508061139b576040517f08c379a000000000000000000000000000000000000000000000000000000000815260040161139290611e0f565b60405180910390fd5b6010829080600181540180825580915050600190039060005260206000209060060201600090919091909150600082015181600001556020820151816001015560408201518160020155606082015181600301556080820151816004015560a082015181600501555050505b60016007600082825461141a9190611e2f565b9250508190555050565b6040518060c001604052806000815260200160008152602001600081526020016000815260200160008152602001600081525090565b600073ffffffffffffffffffffffffffffffffffffffff82169050919050565b60006114858261145a565b9050919050565b6114958161147a565b82525050565b60006020820190506114b0600083018461148c565b92915050565b6000819050919050565b6114c9816114b6565b82525050565b60008115159050919050565b6114e4816114cf565b82525050565b6114f3816114b6565b82525050565b60c08201600082015161150f60008501826114ea565b50602082015161152260208501826114ea565b50604082015161153560408501826114ea565b50606082015161154860608501826114ea565b50608082015161155b60808501826114ea565b5060a082015161156e60a08501826114ea565b50505050565b600081519050919050565b600082825260208201905092915050565b6000819050602082019050919050565b60c0820160008201516115b660008501826114ea565b5060208201516115c960208501826114ea565b5060408201516115dc60408501826114ea565b5060608201516115ef60608501826114ea565b50608082015161160260808501826114ea565b5060a082015161161560a08501826114ea565b50505050565b600061162783836115a0565b60c08301905092915050565b6000602082019050919050565b600061164b82611574565b611655818561157f565b935061166083611590565b8060005b83811015611691578151611678888261161b565b975061168383611633565b925050600181019050611664565b5085935050505092915050565b60006101e0820190506116b4600083018d61148c565b6116c1602083018c61148c565b6116ce604083018b61148c565b6116db606083018a61148c565b6116e860808301896114c0565b6116f560a08301886114c0565b61170260c08301876114db565b61170f60e08301866114f9565b61171d6101a08301856114c0565b8181036101c08301526117308184611640565b90509b9a5050505050505050505050565b600060208201905061175660008301846114db565b92915050565b600080fd5b61176a8161147a565b811461177557600080fd5b50565b60008135905061178781611761565b92915050565b6000602082840312156117a3576117a261175c565b5b60006117b184828501611778565b91505092915050565b6117c3816114b6565b81146117ce57600080fd5b50565b6000813590506117e0816117ba565b92915050565b6000602082840312156117fc576117fb61175c565b5b600061180a848285016117d1565b91505092915050565b600069ffffffffffffffffffff82169050919050565b61183281611813565b82525050565b600060808201905061184d60008301876114c0565b61185a60208301866114c0565b6118676040830185611829565b61187460608301846114c0565b95945050505050565b600060608201905061189260008301866114c0565b61189f6020830185611829565b6118ac60408301846114c0565b949350505050565b600060c0820190506118c960008301846114f9565b92915050565b600082825260208201905092915050565b7f4f6e6c792074686520547275737465652063616e206c6971756964617465207460008201527f6865207472757374000000000000000000000000000000000000000000000000602082015250565b600061193c6028836118cf565b9150611947826118e0565b604082019050919050565b6000602082019050818103600083015261196b8161192f565b9050919050565b600081905092915050565b50565b600061198d600083611972565b91506119988261197d565b600082019050919050565b60006119ae82611980565b9150819050919050565b7f4661696c656420746f206c697175696461746500000000000000000000000000600082015250565b60006119ee6013836118cf565b91506119f9826119b8565b602082019050919050565b60006020820190508181036000830152611a1d816119e1565b9050919050565b7f4f6e6c7920746865205472757374656520697320616c6c6f77656420746f206360008201527f68616e6765207468652054727573746565206164647265737300000000000000602082015250565b6000611a806039836118cf565b9150611a8b82611a24565b604082019050919050565b60006020820190508181036000830152611aaf81611a73565b9050919050565b7f4e487b7100000000000000000000000000000000000000000000000000000000600052601160045260246000fd5b6000611af0826114b6565b9150611afb836114b6565b9250817fffffffffffffffffffffffffffffffffffffffffffffffffffffffffffffffff0483118215151615611b3457611b33611ab6565b5b828202905092915050565b7f4e487b7100000000000000000000000000000000000000000000000000000000600052601260045260246000fd5b6000611b79826114b6565b9150611b84836114b6565b925082611b9457611b93611b3f565b5b828204905092915050565b6000611baa826114b6565b9150611bb5836114b6565b925082821015611bc857611bc7611ab6565b5b828203905092915050565b7f4661696c656420746f207061796f757420636861726974790000000000000000600082015250565b6000611c096018836118cf565b9150611c1482611bd3565b602082019050919050565b60006020820190508181036000830152611c3881611bfc565b9050919050565b7f4f6e6c7920746865205472757374656520697320616c6c6f77656420746f206360008201527f68616e6765207468652042656e65666963696172792061646472657373000000602082015250565b6000611c9b603d836118cf565b9150611ca682611c3f565b604082019050919050565b60006020820190508181036000830152611cca81611c8e565b9050919050565b611cda81611813565b8114611ce557600080fd5b50565b600081519050611cf781611cd1565b92915050565b6000819050919050565b611d1081611cfd565b8114611d1b57600080fd5b50565b600081519050611d2d81611d07565b92915050565b600081519050611d42816117ba565b92915050565b600080600080600060a08688031215611d6457611d6361175c565b5b6000611d7288828901611ce8565b9550506020611d8388828901611d1e565b9450506040611d9488828901611d33565b9350506060611da588828901611d33565b9250506080611db688828901611ce8565b9150509295509295909350565b7f4661696c656420746f2073656e64204574686572000000000000000000000000600082015250565b6000611df96014836118cf565b9150611e0482611dc3565b602082019050919050565b60006020820190508181036000830152611e2881611dec565b9050919050565b6000611e3a826114b6565b9150611e45836114b6565b9250827fffffffffffffffffffffffffffffffffffffffffffffffffffffffffffffffff03821115611e7a57611e79611ab6565b5b82820190509291505056fea2646970667358221220fd24ecba564cb273f32684bd66ffc2b59edf70ef32ecc6bdbe26edaa9bbdaa5464736f6c634300080b0033",
  "linkReferences": {},
  "deployedLinkReferences": {}
}