{
  "_format": "hh-sol-artifact-1",
  "contractName": "FinancialMathHelper",
  "sourceName": "contracts/FinancialMathHelper.sol",
  "abi": [
    {
      "inputs": [
        {
          "internalType": "address",
          "name": "_priceFeedAddress",
          "type": "address"
        }
      ],
      "stateMutability": "nonpayable",
      "type": "constructor"
    },
    {
      "inputs": [],
      "name": "getLastEthPriceUSD",
      "outputs": [
        {
          "internalType": "uint256",
          "name": "",
          "type": "uint256"
        },
        {
          "internalType": "uint80",
          "name": "",
          "type": "uint80"
        },
        {
          "internalType": "uint256",
          "name": "",
          "type": "uint256"
        }
      ],
      "stateMutability": "view",
      "type": "function"
    },
    {
      "inputs": [
        {
          "internalType": "uint256",
          "name": "_usdAmountDegree18",
          "type": "uint256"
        }
      ],
      "name": "getPaymentEthAmount",
      "outputs": [
        {
          "components": [
            {
              "internalType": "uint256",
              "name": "ethPaid",
              "type": "uint256"
            },
            {
              "internalType": "uint256",
              "name": "paymentTimestamp",
              "type": "uint256"
            },
            {
              "internalType": "uint256",
              "name": "ethPrice",
              "type": "uint256"
            },
            {
              "internalType": "uint256",
              "name": "priceRound",
              "type": "uint256"
            },
            {
              "internalType": "uint256",
              "name": "priceTimestamp",
              "type": "uint256"
            },
            {
              "internalType": "uint256",
              "name": "usdPaymentAmount",
              "type": "uint256"
            }
          ],
          "internalType": "struct FinancialMathHelper.Payment",
          "name": "",
          "type": "tuple"
        }
      ],
      "stateMutability": "view",
      "type": "function"
    },
    {
      "inputs": [
        {
          "internalType": "uint256",
          "name": "_ethAmountWei",
          "type": "uint256"
        }
      ],
      "name": "getUSDValue",
      "outputs": [
        {
          "internalType": "uint256",
          "name": "",
          "type": "uint256"
        },
        {
          "internalType": "uint256",
          "name": "",
          "type": "uint256"
        },
        {
          "internalType": "uint80",
          "name": "",
          "type": "uint80"
        },
        {
          "internalType": "uint256",
          "name": "",
          "type": "uint256"
        }
      ],
      "stateMutability": "view",
      "type": "function"
    }
  ],
  "bytecode": "0x608060405234801561001057600080fd5b50604051610774380380610774833981810160405281019061003291906100db565b806000806101000a81548173ffffffffffffffffffffffffffffffffffffffff021916908373ffffffffffffffffffffffffffffffffffffffff16021790555050610108565b600080fd5b600073ffffffffffffffffffffffffffffffffffffffff82169050919050565b60006100a88261007d565b9050919050565b6100b88161009d565b81146100c357600080fd5b50565b6000815190506100d5816100af565b92915050565b6000602082840312156100f1576100f0610078565b5b60006100ff848285016100c6565b91505092915050565b61065d806101176000396000f3fe608060405234801561001057600080fd5b50600436106100415760003560e01c8063517d5e4e14610046578063fbf9096a14610079578063fcd2239614610099575b600080fd5b610060600480360381019061005b91906102ca565b6100c9565b604051610070949392919061032b565b60405180910390f35b61008161011e565b60405161009093929190610370565b60405180910390f35b6100b360048036038101906100ae91906102ca565b6101cf565b6040516100c09190610431565b60405180910390f35b60008060008060008060006100dc61011e565b925092509250600083905060006305f5e1008a836100fa919061047b565b6101049190610504565b905080828585985098509850985050505050509193509193565b60008060008060008060008054906101000a900473ffffffffffffffffffffffffffffffffffffffff1673ffffffffffffffffffffffffffffffffffffffff1663feaf968c6040518163ffffffff1660e01b815260040160a060405180830381865afa158015610192573d6000803e3d6000fd5b505050506040513d601f19601f820116820180604052508101906101b691906105ac565b5093505092509250818382955095509550505050909192565b6101d7610259565b600082905060008060006101e961011e565b9250925092506000836305f5e10086610202919061047b565b61020c9190610504565b905060006040518060c001604052808381526020014281526020018681526020018569ffffffffffffffffffff168152602001848152602001898152509050809650505050505050919050565b6040518060c001604052806000815260200160008152602001600081526020016000815260200160008152602001600081525090565b600080fd5b6000819050919050565b6102a781610294565b81146102b257600080fd5b50565b6000813590506102c48161029e565b92915050565b6000602082840312156102e0576102df61028f565b5b60006102ee848285016102b5565b91505092915050565b61030081610294565b82525050565b600069ffffffffffffffffffff82169050919050565b61032581610306565b82525050565b600060808201905061034060008301876102f7565b61034d60208301866102f7565b61035a604083018561031c565b61036760608301846102f7565b95945050505050565b600060608201905061038560008301866102f7565b610392602083018561031c565b61039f60408301846102f7565b949350505050565b6103b081610294565b82525050565b60c0820160008201516103cc60008501826103a7565b5060208201516103df60208501826103a7565b5060408201516103f260408501826103a7565b50606082015161040560608501826103a7565b50608082015161041860808501826103a7565b5060a082015161042b60a08501826103a7565b50505050565b600060c08201905061044660008301846103b6565b92915050565b7f4e487b7100000000000000000000000000000000000000000000000000000000600052601160045260246000fd5b600061048682610294565b915061049183610294565b9250817fffffffffffffffffffffffffffffffffffffffffffffffffffffffffffffffff04831182151516156104ca576104c961044c565b5b828202905092915050565b7f4e487b7100000000000000000000000000000000000000000000000000000000600052601260045260246000fd5b600061050f82610294565b915061051a83610294565b92508261052a576105296104d5565b5b828204905092915050565b61053e81610306565b811461054957600080fd5b50565b60008151905061055b81610535565b92915050565b6000819050919050565b61057481610561565b811461057f57600080fd5b50565b6000815190506105918161056b565b92915050565b6000815190506105a68161029e565b92915050565b600080600080600060a086880312156105c8576105c761028f565b5b60006105d68882890161054c565b95505060206105e788828901610582565b94505060406105f888828901610597565b935050606061060988828901610597565b925050608061061a8882890161054c565b915050929550929590935056fea26469706673582212201335223910aeb1d473fa1f4ebdc177aa5fe194316da2aae84fdc933a63165fbb64736f6c634300080b0033",
  "linkReferences": {},
  "deployedLinkReferences": {}
}