{
  "_format": "hh-sol-artifact-1",
  "contractName": "RoboTrustDeployer",
  "sourceName": "contracts/RoboTrustDeployer.sol",
  "abi": [
    {
      "inputs": [
        {
          "internalType": "address",
          "name": "_priceFeedAddress",
          "type": "address"
        }
      ],
      "stateMutability": "nonpayable",
      "type": "constructor"
    },
    {
      "inputs": [
        {
          "internalType": "address",
          "name": "_annuant",
          "type": "address"
        },
        {
          "internalType": "address",
          "name": "_trustee",
          "type": "address"
        },
        {
          "internalType": "address",
          "name": "_beneficiary",
          "type": "address"
        },
        {
          "internalType": "uint16",
          "name": "_numberOfYears",
          "type": "uint16"
        },
        {
          "internalType": "uint16",
          "name": "_paymentPercent",
          "type": "uint16"
        },
        {
          "internalType": "string",
          "name": "_disclaimer",
          "type": "string"
        }
      ],
      "name": "createCRUT",
      "outputs": [],
      "stateMutability": "payable",
      "type": "function"
    },
    {
      "inputs": [
        {
          "internalType": "uint256",
          "name": "_period",
          "type": "uint256"
        },
        {
          "internalType": "uint256",
          "name": "_numberOfYears",
          "type": "uint256"
        },
        {
          "internalType": "uint256[]",
          "name": "_paymentAmounts",
          "type": "uint256[]"
        },
        {
          "internalType": "uint256",
          "name": "_annuityPV",
          "type": "uint256"
        },
        {
          "internalType": "address",
          "name": "_trustee",
          "type": "address"
        },
        {
          "internalType": "address",
          "name": "_beneficiary",
          "type": "address"
        },
        {
          "internalType": "bool",
          "name": "_showAccounting",
          "type": "bool"
        },
        {
          "internalType": "string",
          "name": "_disclaimer",
          "type": "string"
        }
      ],
      "name": "createTrust",
      "outputs": [
        {
          "internalType": "contract RoboTrust",
          "name": "",
          "type": "address"
        }
      ],
      "stateMutability": "payable",
      "type": "function"
    },
    {
      "inputs": [
        {
          "internalType": "uint256",
          "name": "",
          "type": "uint256"
        }
      ],
      "name": "crutList",
      "outputs": [
        {
          "internalType": "contract RoboTrustCRUT",
          "name": "",
          "type": "address"
        }
      ],
      "stateMutability": "view",
      "type": "function"
    },
    {
      "inputs": [
        {
          "internalType": "address",
          "name": "_address",
          "type": "address"
        }
      ],
      "name": "getAddressCRUT",
      "outputs": [
        {
          "internalType": "uint256[]",
          "name": "",
          "type": "uint256[]"
        }
      ],
      "stateMutability": "view",
      "type": "function"
    },
    {
      "inputs": [
        {
          "internalType": "address",
          "name": "_beneficiary",
          "type": "address"
        }
      ],
      "name": "getBeneficiaryTrusts",
      "outputs": [
        {
          "internalType": "uint256[]",
          "name": "",
          "type": "uint256[]"
        }
      ],
      "stateMutability": "view",
      "type": "function"
    },
    {
      "inputs": [
        {
          "internalType": "address",
          "name": "_owner",
          "type": "address"
        }
      ],
      "name": "getOwnerTrusts",
      "outputs": [
        {
          "internalType": "uint256[]",
          "name": "",
          "type": "uint256[]"
        }
      ],
      "stateMutability": "view",
      "type": "function"
    },
    {
      "inputs": [
        {
          "internalType": "address",
          "name": "_trustee",
          "type": "address"
        }
      ],
      "name": "getTrusteeTrusts",
      "outputs": [
        {
          "internalType": "uint256[]",
          "name": "",
          "type": "uint256[]"
        }
      ],
      "stateMutability": "view",
      "type": "function"
    },
    {
      "inputs": [
        {
          "internalType": "uint256",
          "name": "",
          "type": "uint256"
        }
      ],
      "name": "trustList",
      "outputs": [
        {
          "internalType": "contract RoboTrust",
          "name": "",
          "type": "address"
        }
      ],
      "stateMutability": "view",
      "type": "function"
    }
  ],
  "bytecode": "0x60806040523480156200001157600080fd5b50604051620076c3380380620076c38339818101604052810190620000379190620001cd565b806000806101000a81548173ffffffffffffffffffffffffffffffffffffffff021916908373ffffffffffffffffffffffffffffffffffffffff160217905550604051806104a0016040528061047d81526020016200724661047d913960039080519060200190620000ab929190620000b3565b505062000264565b828054620000c1906200022e565b90600052602060002090601f016020900481019282620000e5576000855562000131565b82601f106200010057805160ff191683800117855562000131565b8280016001018555821562000131579182015b828111156200013057825182559160200191906001019062000113565b5b50905062000140919062000144565b5090565b5b808211156200015f57600081600090555060010162000145565b5090565b600080fd5b600073ffffffffffffffffffffffffffffffffffffffff82169050919050565b6000620001958262000168565b9050919050565b620001a78162000188565b8114620001b357600080fd5b50565b600081519050620001c7816200019c565b92915050565b600060208284031215620001e657620001e562000163565b5b6000620001f684828501620001b6565b91505092915050565b7f4e487b7100000000000000000000000000000000000000000000000000000000600052602260045260246000fd5b600060028204905060018216806200024757607f821691505b602082108114156200025e576200025d620001ff565b5b50919050565b616fd280620002746000396000f3fe608060405260043610620000865760003560e01c8063c03ef36b1162000055578063c03ef36b146200018d578063c4c9d48f14620001d1578063ce1e25a014620001f1578063d5a36b6d14620002355762000086565b806347e917e5146200008b5780635157dff514620000c1578063675c667c1462000105578063be2b4fcf1462000149575b600080fd5b620000a96004803603810190620000a3919062001071565b62000279565b604051620000b89190620011e3565b60405180910390f35b348015620000ce57600080fd5b50620000ed6004803603810190620000e7919062001200565b6200068b565b604051620000fc919062001300565b60405180910390f35b3480156200011257600080fd5b506200013160048036038101906200012b919062001200565b62000724565b60405162000140919062001300565b60405180910390f35b3480156200015657600080fd5b506200017560048036038101906200016f919062001200565b620007bd565b60405162000184919062001300565b60405180910390f35b3480156200019a57600080fd5b50620001b96004803603810190620001b3919062001324565b62000856565b604051620001c891906200137b565b60405180910390f35b620001ef6004803603810190620001e99190620013d7565b62000896565b005b348015620001fe57600080fd5b506200021d600480360381019062000217919062001324565b62000c4e565b6040516200022c9190620011e3565b60405180910390f35b3480156200024257600080fd5b506200026160048036038101906200025b919062001200565b62000c8e565b60405162000270919062001300565b60405180910390f35b6000816040516020016200028e919062001515565b604051602081830303815290604052805190602001206003604051602001620002b8919062001633565b604051602081830303815290604052805190602001201462000311576040517f08c379a00000000000000000000000000000000000000000000000000000000081526004016200030890620016ad565b60405180910390fd5b6000343387878d8d8d8d60008054906101000a900473ffffffffffffffffffffffffffffffffffffffff168c6040516200034b9062000d27565b6200035f9998979695949392919062001702565b6040518091039082f09050801580156200037d573d6000803e3d6000fd5b509050600060018054905090506001829080600181540180825580915050600190039060005260206000200160009091909190916101000a81548173ffffffffffffffffffffffffffffffffffffffff021916908373ffffffffffffffffffffffffffffffffffffffff160217905550600460003373ffffffffffffffffffffffffffffffffffffffff1673ffffffffffffffffffffffffffffffffffffffff168152602001908152602001600020819080600181540180825580915050600190039060005260206000200160009091909190915055600560008373ffffffffffffffffffffffffffffffffffffffff166328a6b1d56040518163ffffffff1660e01b8152600401602060405180830381865afa158015620004a3573d6000803e3d6000fd5b505050506040513d601f19601f82011682018060405250810190620004c99190620017bf565b73ffffffffffffffffffffffffffffffffffffffff1673ffffffffffffffffffffffffffffffffffffffff1681526020019081526020016000208190806001815401808255809150506001900390600052602060002001600090919091909150558173ffffffffffffffffffffffffffffffffffffffff1663de9d390a6040518163ffffffff1660e01b8152600401602060405180830381865afa15801562000576573d6000803e3d6000fd5b505050506040513d601f19601f820116820180604052508101906200059c919062001808565b156200067a57600660008373ffffffffffffffffffffffffffffffffffffffff1663d1eff8956040518163ffffffff1660e01b8152600401602060405180830381865afa158015620005f2573d6000803e3d6000fd5b505050506040513d601f19601f82011682018060405250810190620006189190620017bf565b73ffffffffffffffffffffffffffffffffffffffff1673ffffffffffffffffffffffffffffffffffffffff1681526020019081526020016000208190806001815401808255809150506001900390600052602060002001600090919091909150555b819250505098975050505050505050565b6060600560008373ffffffffffffffffffffffffffffffffffffffff1673ffffffffffffffffffffffffffffffffffffffff1681526020019081526020016000208054806020026020016040519081016040528092919081815260200182805480156200071857602002820191906000526020600020905b81548152602001906001019080831162000703575b50505050509050919050565b6060600660008373ffffffffffffffffffffffffffffffffffffffff1673ffffffffffffffffffffffffffffffffffffffff168152602001908152602001600020805480602002602001604051908101604052809291908181526020018280548015620007b157602002820191906000526020600020905b8154815260200190600101908083116200079c575b50505050509050919050565b6060600460008373ffffffffffffffffffffffffffffffffffffffff1673ffffffffffffffffffffffffffffffffffffffff1681526020019081526020016000208054806020026020016040519081016040528092919081815260200182805480156200084a57602002820191906000526020600020905b81548152602001906001019080831162000835575b50505050509050919050565b600281815481106200086757600080fd5b906000526020600020016000915054906101000a900473ffffffffffffffffffffffffffffffffffffffff1681565b80604051602001620008a9919062001515565b604051602081830303815290604052805190602001206003604051602001620008d3919062001633565b60405160208183030381529060405280519060200120146200092c576040517f08c379a00000000000000000000000000000000000000000000000000000000081526004016200092390620016ad565b60405180910390fd5b60003433888888603c898960008054906101000a900473ffffffffffffffffffffffffffffffffffffffff16604051620009669062000d35565b62000979989796959493929190620018c7565b6040518091039082f090508015801562000997573d6000803e3d6000fd5b509050600060028054905090506002829080600181540180825580915050600190039060005260206000200160009091909190916101000a81548173ffffffffffffffffffffffffffffffffffffffff021916908373ffffffffffffffffffffffffffffffffffffffff160217905550600760003373ffffffffffffffffffffffffffffffffffffffff1673ffffffffffffffffffffffffffffffffffffffff1681526020019081526020016000208190806001815401808255809150506001900390600052602060002001600090919091909150558673ffffffffffffffffffffffffffffffffffffffff163373ffffffffffffffffffffffffffffffffffffffff161462000b0857600760008873ffffffffffffffffffffffffffffffffffffffff1673ffffffffffffffffffffffffffffffffffffffff1681526020019081526020016000208190806001815401808255809150506001900390600052602060002001600090919091909150555b8773ffffffffffffffffffffffffffffffffffffffff163373ffffffffffffffffffffffffffffffffffffffff161415801562000b7157508773ffffffffffffffffffffffffffffffffffffffff168773ffffffffffffffffffffffffffffffffffffffff1614155b1562000bde57600760008973ffffffffffffffffffffffffffffffffffffffff1673ffffffffffffffffffffffffffffffffffffffff1681526020019081526020016000208190806001815401808255809150506001900390600052602060002001600090919091909150555b600760008773ffffffffffffffffffffffffffffffffffffffff1673ffffffffffffffffffffffffffffffffffffffff1681526020019081526020016000208190806001815401808255809150506001900390600052602060002001600090919091909150555050505050505050565b6001818154811062000c5f57600080fd5b906000526020600020016000915054906101000a900473ffffffffffffffffffffffffffffffffffffffff1681565b6060600760008373ffffffffffffffffffffffffffffffffffffffff1673ffffffffffffffffffffffffffffffffffffffff16815260200190815260200160002080548060200260200160405190810160405280929190818152602001828054801562000d1b57602002820191906000526020600020905b81548152602001906001019080831162000d06575b50505050509050919050565b612cdb806200195683390190565b61296c806200463183390190565b6000604051905090565b600080fd5b600080fd5b6000819050919050565b62000d6c8162000d57565b811462000d7857600080fd5b50565b60008135905062000d8c8162000d61565b92915050565b600080fd5b6000601f19601f8301169050919050565b7f4e487b7100000000000000000000000000000000000000000000000000000000600052604160045260246000fd5b62000de28262000d97565b810181811067ffffffffffffffff8211171562000e045762000e0362000da8565b5b80604052505050565b600062000e1962000d43565b905062000e27828262000dd7565b919050565b600067ffffffffffffffff82111562000e4a5762000e4962000da8565b5b602082029050602081019050919050565b600080fd5b600062000e7762000e718462000e2c565b62000e0d565b9050808382526020820190506020840283018581111562000e9d5762000e9c62000e5b565b5b835b8181101562000eca578062000eb5888262000d7b565b84526020840193505060208101905062000e9f565b5050509392505050565b600082601f83011262000eec5762000eeb62000d92565b5b813562000efe84826020860162000e60565b91505092915050565b600073ffffffffffffffffffffffffffffffffffffffff82169050919050565b600062000f348262000f07565b9050919050565b62000f468162000f27565b811462000f5257600080fd5b50565b60008135905062000f668162000f3b565b92915050565b60008115159050919050565b62000f838162000f6c565b811462000f8f57600080fd5b50565b60008135905062000fa38162000f78565b92915050565b600080fd5b600067ffffffffffffffff82111562000fcc5762000fcb62000da8565b5b62000fd78262000d97565b9050602081019050919050565b82818337600083830152505050565b60006200100a620010048462000fae565b62000e0d565b90508281526020810184848401111562001029576200102862000fa9565b5b6200103684828562000fe4565b509392505050565b600082601f83011262001056576200105562000d92565b5b81356200106884826020860162000ff3565b91505092915050565b600080600080600080600080610100898b03121562001095576200109462000d4d565b5b6000620010a58b828c0162000d7b565b9850506020620010b88b828c0162000d7b565b975050604089013567ffffffffffffffff811115620010dc57620010db62000d52565b5b620010ea8b828c0162000ed4565b9650506060620010fd8b828c0162000d7b565b9550506080620011108b828c0162000f55565b94505060a0620011238b828c0162000f55565b93505060c0620011368b828c0162000f92565b92505060e089013567ffffffffffffffff8111156200115a576200115962000d52565b5b620011688b828c016200103e565b9150509295985092959890939650565b6000819050919050565b6000620011a36200119d620011978462000f07565b62001178565b62000f07565b9050919050565b6000620011b78262001182565b9050919050565b6000620011cb82620011aa565b9050919050565b620011dd81620011be565b82525050565b6000602082019050620011fa6000830184620011d2565b92915050565b60006020828403121562001219576200121862000d4d565b5b6000620012298482850162000f55565b91505092915050565b600081519050919050565b600082825260208201905092915050565b6000819050602082019050919050565b620012698162000d57565b82525050565b60006200127d83836200125e565b60208301905092915050565b6000602082019050919050565b6000620012a38262001232565b620012af81856200123d565b9350620012bc836200124e565b8060005b83811015620012f3578151620012d788826200126f565b9750620012e48362001289565b925050600181019050620012c0565b5085935050505092915050565b600060208201905081810360008301526200131c818462001296565b905092915050565b6000602082840312156200133d576200133c62000d4d565b5b60006200134d8482850162000d7b565b91505092915050565b60006200136382620011aa565b9050919050565b620013758162001356565b82525050565b60006020820190506200139260008301846200136a565b92915050565b600061ffff82169050919050565b620013b18162001398565b8114620013bd57600080fd5b50565b600081359050620013d181620013a6565b92915050565b60008060008060008060c08789031215620013f757620013f662000d4d565b5b60006200140789828a0162000f55565b96505060206200141a89828a0162000f55565b95505060406200142d89828a0162000f55565b94505060606200144089828a01620013c0565b93505060806200145389828a01620013c0565b92505060a087013567ffffffffffffffff81111562001477576200147662000d52565b5b6200148589828a016200103e565b9150509295509295509295565b600081519050919050565b600081905092915050565b60005b83811015620014c8578082015181840152602081019050620014ab565b83811115620014d8576000848401525b50505050565b6000620014eb8262001492565b620014f781856200149d565b935062001509818560208601620014a8565b80840191505092915050565b6000620015238284620014de565b915081905092915050565b7f4e487b7100000000000000000000000000000000000000000000000000000000600052602260045260246000fd5b600060028204905060018216806200157657607f821691505b602082108114156200158d576200158c6200152e565b5b50919050565b60008190508160005260206000209050919050565b60008154620015b7816200155d565b620015c381866200149d565b94506001821660008114620015e15760018114620015f3576200162a565b60ff198316865281860193506200162a565b620015fe8562001593565b60005b83811015620016225781548189015260018201915060208101905062001601565b838801955050505b50505092915050565b6000620016418284620015a8565b915081905092915050565b600082825260208201905092915050565b7f596f75206d757374207369676e206f757220646973636c61696d657200000000600082015250565b600062001695601c836200164c565b9150620016a2826200165d565b602082019050919050565b60006020820190508181036000830152620016c88162001686565b9050919050565b620016da8162000f27565b82525050565b620016eb8162000d57565b82525050565b620016fc8162000f6c565b82525050565b6000610120820190506200171a600083018c620016cf565b62001729602083018b620016cf565b62001738604083018a620016cf565b620017476060830189620016e0565b620017566080830188620016e0565b81810360a08301526200176a818762001296565b90506200177b60c0830186620016e0565b6200178a60e0830185620016cf565b6200179a610100830184620016f1565b9a9950505050505050505050565b600081519050620017b98162000f3b565b92915050565b600060208284031215620017d857620017d762000d4d565b5b6000620017e884828501620017a8565b91505092915050565b600081519050620018028162000f78565b92915050565b60006020828403121562001821576200182062000d4d565b5b60006200183184828501620017f1565b91505092915050565b6000819050919050565b6000620018656200185f62001859846200183a565b62001178565b62000d57565b9050919050565b620018778162001844565b82525050565b620018888162001398565b82525050565b6000620018af620018a9620018a38462001398565b62001178565b62000d57565b9050919050565b620018c1816200188e565b82525050565b600061010082019050620018df600083018b620016cf565b620018ee602083018a620016cf565b620018fd6040830189620016cf565b6200190c6060830188620016cf565b6200191b60808301876200186c565b6200192a60a08301866200187d565b6200193960c0830185620018b6565b6200194860e0830184620016cf565b999850505050505050505056fe61010060405260405162002cdb38038062002cdb83398181016040528101906200002a9190620007b5565b81806000806101000a81548173ffffffffffffffffffffffffffffffffffffffff021916908373ffffffffffffffffffffffffffffffffffffffff160217905550508673ffffffffffffffffffffffffffffffffffffffff168973ffffffffffffffffffffffffffffffffffffffff161415620000de576040517f08c379a0000000000000000000000000000000000000000000000000000000008152600401620000d5906200093a565b60405180910390fd5b600360009054906101000a900473ffffffffffffffffffffffffffffffffffffffff1673ffffffffffffffffffffffffffffffffffffffff168873ffffffffffffffffffffffffffffffffffffffff16141562000172576040517f08c379a00000000000000000000000000000000000000000000000000000000081526004016200016990620009d2565b60405180910390fd5b33600460006101000a81548173ffffffffffffffffffffffffffffffffffffffff021916908373ffffffffffffffffffffffffffffffffffffffff16021790555088600160006101000a81548173ffffffffffffffffffffffffffffffffffffffff021916908373ffffffffffffffffffffffffffffffffffffffff16021790555087600260006101000a81548173ffffffffffffffffffffffffffffffffffffffff021916908373ffffffffffffffffffffffffffffffffffffffff16021790555086600360006101000a81548173ffffffffffffffffffffffffffffffffffffffff021916908373ffffffffffffffffffffffffffffffffffffffff1602179055506000600860006101000a81548160ff02191690831515021790555080600860016101000a81548160ff0219169083151502179055508560808181525050846007819055504260058190555083600f9080519060200190620002d9929190620004de565b50600080600080620002f134620003c960201b60201c565b935069ffffffffffffffffffff169350935093506040518060c00160405280348152602001428152602001848152602001838152602001828152602001858152506009600082015181600001556020820151816001015560408201518160020155606082015181600301556080820151816004015560a082015181600501559050508660c0818152505060008460c0511115620003925760009050620003a5565b60c05185620003a2919062000a23565b90505b8060a081815250504260e08181525050505050505050505050505050505062000c30565b6000806000806000806000620003e46200042a60201b60201c565b925092509250600083905060006305f5e1008a8362000404919062000a5e565b62000410919062000aee565b905080828585985098509850985050505050509193509193565b60008060008060008060008054906101000a900473ffffffffffffffffffffffffffffffffffffffff1673ffffffffffffffffffffffffffffffffffffffff1663feaf968c6040518163ffffffff1660e01b815260040160a060405180830381865afa1580156200049f573d6000803e3d6000fd5b505050506040513d601f19601f82011682018060405250810190620004c5919062000ba8565b5093505092509250818382955095509550505050909192565b8280548282559060005260206000209081019282156200051d579160200282015b828111156200051c578251825591602001919060010190620004ff565b5b5090506200052c919062000530565b5090565b5b808211156200054b57600081600090555060010162000531565b5090565b6000604051905090565b600080fd5b600080fd5b600073ffffffffffffffffffffffffffffffffffffffff82169050919050565b6000620005908262000563565b9050919050565b620005a28162000583565b8114620005ae57600080fd5b50565b600081519050620005c28162000597565b92915050565b6000819050919050565b620005dd81620005c8565b8114620005e957600080fd5b50565b600081519050620005fd81620005d2565b92915050565b600080fd5b6000601f19601f8301169050919050565b7f4e487b7100000000000000000000000000000000000000000000000000000000600052604160045260246000fd5b620006538262000608565b810181811067ffffffffffffffff8211171562000675576200067462000619565b5b80604052505050565b60006200068a6200054f565b905062000698828262000648565b919050565b600067ffffffffffffffff821115620006bb57620006ba62000619565b5b602082029050602081019050919050565b600080fd5b6000620006e8620006e2846200069d565b6200067e565b905080838252602082019050602084028301858111156200070e576200070d620006cc565b5b835b818110156200073b5780620007268882620005ec565b84526020840193505060208101905062000710565b5050509392505050565b600082601f8301126200075d576200075c62000603565b5b81516200076f848260208601620006d1565b91505092915050565b60008115159050919050565b6200078f8162000778565b81146200079b57600080fd5b50565b600081519050620007af8162000784565b92915050565b60008060008060008060008060006101208a8c031215620007db57620007da62000559565b5b6000620007eb8c828d01620005b1565b9950506020620007fe8c828d01620005b1565b9850506040620008118c828d01620005b1565b9750506060620008248c828d01620005ec565b9650506080620008378c828d01620005ec565b95505060a08a015167ffffffffffffffff8111156200085b576200085a6200055e565b5b620008698c828d0162000745565b94505060c06200087c8c828d01620005ec565b93505060e06200088f8c828d01620005b1565b925050610100620008a38c828d016200079e565b9150509295985092959850929598565b600082825260208201905092915050565b7f4772616e746f722063616e6e6f7420616c736f206265207468652062656e656660008201527f6963696172790000000000000000000000000000000000000000000000000000602082015250565b600062000922602683620008b3565b91506200092f82620008c4565b604082019050919050565b60006020820190508181036000830152620009558162000913565b9050919050565b7f42656e65666963696172792063616e6e6f7420616c736f20626520746865205460008201527f7275737465650000000000000000000000000000000000000000000000000000602082015250565b6000620009ba602683620008b3565b9150620009c7826200095c565b604082019050919050565b60006020820190508181036000830152620009ed81620009ab565b9050919050565b7f4e487b7100000000000000000000000000000000000000000000000000000000600052601160045260246000fd5b600062000a3082620005c8565b915062000a3d83620005c8565b92508282101562000a535762000a52620009f4565b5b828203905092915050565b600062000a6b82620005c8565b915062000a7883620005c8565b9250817fffffffffffffffffffffffffffffffffffffffffffffffffffffffffffffffff048311821515161562000ab45762000ab3620009f4565b5b828202905092915050565b7f4e487b7100000000000000000000000000000000000000000000000000000000600052601260045260246000fd5b600062000afb82620005c8565b915062000b0883620005c8565b92508262000b1b5762000b1a62000abf565b5b828204905092915050565b600069ffffffffffffffffffff82169050919050565b62000b478162000b26565b811462000b5357600080fd5b50565b60008151905062000b678162000b3c565b92915050565b6000819050919050565b62000b828162000b6d565b811462000b8e57600080fd5b50565b60008151905062000ba28162000b77565b92915050565b600080600080600060a0868803121562000bc75762000bc662000559565b5b600062000bd78882890162000b56565b955050602062000bea8882890162000b91565b945050604062000bfd88828901620005ec565b935050606062000c1088828901620005ec565b925050608062000c238882890162000b56565b9150509295509295909350565b60805160a05160c05160e05161206a62000c716000396000610b88015260006105ac0152600061058b015260008181610cad0152610e5c015261206a6000f3fe608060405234801561001057600080fd5b50600436106100ea5760003560e01c8063517d5e4e1161008c578063d1eff89511610066578063d1eff89514610217578063de9d390a14610235578063fbf9096a14610253578063fcd2239614610273576100ea565b8063517d5e4e146101bc5780636e4d243a146101ef578063a13abdad146101f9576100ea565b806328a07025116100c857806328a070251461015457806328a6b1d51461015e578063324716d61461017c578063393c59e214610198576100ea565b80630c4f65bd146100ef578063116692f91461010d578063194307bf14610136575b600080fd5b6100f76102a3565b6040516101049190611563565b60405180910390f35b6101156103d7565b60405161012d9c9b9a99989796959493929190611815565b60405180910390f35b61013e610728565b60405161014b91906118dd565b60405180910390f35b61015c61073b565b005b6101666108b7565b6040516101739190611563565b60405180910390f35b61019660048036038101906101919190611929565b6109eb565b005b6101a0610abf565b6040516101b39796959493929190611956565b60405180910390f35b6101d660048036038101906101d191906119f8565b610c56565b6040516101e69493929190611a4a565b60405180910390f35b6101f7610cab565b005b610201610e58565b60405161020e91906118dd565b60405180910390f35b61021f610eb7565b60405161022c9190611563565b60405180910390f35b61023d610feb565b60405161024a91906118dd565b60405180910390f35b61025b61110c565b60405161026a93929190611a8f565b60405180910390f35b61028d600480360381019061028891906119f8565b6111bd565b60405161029a9190611ac6565b60405180910390f35b6000600160009054906101000a900473ffffffffffffffffffffffffffffffffffffffff1673ffffffffffffffffffffffffffffffffffffffff163373ffffffffffffffffffffffffffffffffffffffff16148061034e5750600260009054906101000a900473ffffffffffffffffffffffffffffffffffffffff1673ffffffffffffffffffffffffffffffffffffffff163373ffffffffffffffffffffffffffffffffffffffff16145b806103a65750600460009054906101000a900473ffffffffffffffffffffffffffffffffffffffff1673ffffffffffffffffffffffffffffffffffffffff163373ffffffffffffffffffffffffffffffffffffffff16145b6103af57600080fd5b600160009054906101000a900473ffffffffffffffffffffffffffffffffffffffff16905090565b60008060008060008060008060006103ed6114ec565b606080600160009054906101000a900473ffffffffffffffffffffffffffffffffffffffff1673ffffffffffffffffffffffffffffffffffffffff163373ffffffffffffffffffffffffffffffffffffffff1614806104995750600260009054906101000a900473ffffffffffffffffffffffffffffffffffffffff1673ffffffffffffffffffffffffffffffffffffffff163373ffffffffffffffffffffffffffffffffffffffff16145b806104f15750600460009054906101000a900473ffffffffffffffffffffffffffffffffffffffff1673ffffffffffffffffffffffffffffffffffffffff163373ffffffffffffffffffffffffffffffffffffffff16145b6104fa57600080fd5b600160009054906101000a900473ffffffffffffffffffffffffffffffffffffffff16600260009054906101000a900473ffffffffffffffffffffffffffffffffffffffff16600360009054906101000a900473ffffffffffffffffffffffffffffffffffffffff16600554600754600860009054906101000a900460ff16600860019054906101000a900460ff167f00000000000000000000000000000000000000000000000000000000000000007f00000000000000000000000000000000000000000000000000000000000000006009600f6010826040518060c0016040529081600082015481526020016001820154815260200160028201548152602001600382015481526020016004820154815260200160058201548152505092508180548060200260200160405190810160405280929190818152602001828054801561066657602002820191906000526020600020905b815481526020019060010190808311610652575b5050505050915080805480602002602001604051908101604052809291908181526020016000905b828210156106fc57838290600052602060002090600602016040518060c001604052908160008201548152602001600182015481526020016002820154815260200160038201548152602001600482015481526020016005820154815250508152602001906001019061068e565b5050505090509b509b509b509b509b509b509b509b509b509b509b509b50909192939495969798999a9b565b600860009054906101000a900460ff1681565b600260009054906101000a900473ffffffffffffffffffffffffffffffffffffffff1673ffffffffffffffffffffffffffffffffffffffff163373ffffffffffffffffffffffffffffffffffffffff16146107cb576040517f08c379a00000000000000000000000000000000000000000000000000000000081526004016107c290611b64565b60405180910390fd5b6000600260009054906101000a900473ffffffffffffffffffffffffffffffffffffffff1673ffffffffffffffffffffffffffffffffffffffff164760405161081390611bb5565b60006040518083038185875af1925050503d8060008114610850576040519150601f19603f3d011682016040523d82523d6000602084013e610855565b606091505b5050905080610899576040517f08c379a000000000000000000000000000000000000000000000000000000000815260040161089090611c16565b60405180910390fd5b6001600860006101000a81548160ff02191690831515021790555050565b6000600160009054906101000a900473ffffffffffffffffffffffffffffffffffffffff1673ffffffffffffffffffffffffffffffffffffffff163373ffffffffffffffffffffffffffffffffffffffff1614806109625750600260009054906101000a900473ffffffffffffffffffffffffffffffffffffffff1673ffffffffffffffffffffffffffffffffffffffff163373ffffffffffffffffffffffffffffffffffffffff16145b806109ba5750600460009054906101000a900473ffffffffffffffffffffffffffffffffffffffff1673ffffffffffffffffffffffffffffffffffffffff163373ffffffffffffffffffffffffffffffffffffffff16145b6109c357600080fd5b600260009054906101000a900473ffffffffffffffffffffffffffffffffffffffff16905090565b600260009054906101000a900473ffffffffffffffffffffffffffffffffffffffff1673ffffffffffffffffffffffffffffffffffffffff163373ffffffffffffffffffffffffffffffffffffffff1614610a7b576040517f08c379a0000000000000000000000000000000000000000000000000000000008152600401610a7290611ca8565b60405180910390fd5b80600260006101000a81548173ffffffffffffffffffffffffffffffffffffffff021916908373ffffffffffffffffffffffffffffffffffffffff16021790555050565b6000806000806060600080600360009054906101000a900473ffffffffffffffffffffffffffffffffffffffff1673ffffffffffffffffffffffffffffffffffffffff163373ffffffffffffffffffffffffffffffffffffffff16148015610b335750600860019054906101000a900460ff165b610b3c57600080fd5b600160009054906101000a900473ffffffffffffffffffffffffffffffffffffffff16600260009054906101000a900473ffffffffffffffffffffffffffffffffffffffff16304760107f000000000000000000000000000000000000000000000000000000000000000060075482805480602002602001604051908101604052809291908181526020016000905b82821015610c3957838290600052602060002090600602016040518060c0016040529081600082015481526020016001820154815260200160028201548152602001600382015481526020016004820154815260200160058201548152505081526020019060010190610bcb565b505050509250965096509650965096509650965090919293949596565b6000806000806000806000610c6961110c565b925092509250600083905060006305f5e1008a83610c879190611cf7565b610c919190611d80565b905080828585985098509850985050505050509193509193565b7f000000000000000000000000000000000000000000000000000000000000000060055442610cda9190611db1565b118015610cea5750600754600654105b8015610d035750600860009054906101000a900460ff16155b15610e5657426005819055506000610d3a600f60065481548110610d2a57610d29611de5565b5b90600052602060002001546111bd565b9050610d4581611247565b60075460065410610e20576000600360009054906101000a900473ffffffffffffffffffffffffffffffffffffffff1673ffffffffffffffffffffffffffffffffffffffff1647604051610d9890611bb5565b60006040518083038185875af1925050503d8060008114610dd5576040519150601f19603f3d011682016040523d82523d6000602084013e610dda565b606091505b5050905080610e1e576040517f08c379a0000000000000000000000000000000000000000000000000000000008152600401610e1590611e60565b60405180910390fd5b505b600754600654101580610e335750600047145b15610e54576001600860006101000a81548160ff0219169083151502179055505b505b565b60007f000000000000000000000000000000000000000000000000000000000000000060055442610e899190611db1565b118015610e995750600754600654105b8015610eb25750600860009054906101000a900460ff16155b905090565b6000600160009054906101000a900473ffffffffffffffffffffffffffffffffffffffff1673ffffffffffffffffffffffffffffffffffffffff163373ffffffffffffffffffffffffffffffffffffffff161480610f625750600260009054906101000a900473ffffffffffffffffffffffffffffffffffffffff1673ffffffffffffffffffffffffffffffffffffffff163373ffffffffffffffffffffffffffffffffffffffff16145b80610fba5750600460009054906101000a900473ffffffffffffffffffffffffffffffffffffffff1673ffffffffffffffffffffffffffffffffffffffff163373ffffffffffffffffffffffffffffffffffffffff16145b610fc357600080fd5b600360009054906101000a900473ffffffffffffffffffffffffffffffffffffffff16905090565b6000600160009054906101000a900473ffffffffffffffffffffffffffffffffffffffff1673ffffffffffffffffffffffffffffffffffffffff163373ffffffffffffffffffffffffffffffffffffffff1614806110965750600260009054906101000a900473ffffffffffffffffffffffffffffffffffffffff1673ffffffffffffffffffffffffffffffffffffffff163373ffffffffffffffffffffffffffffffffffffffff16145b806110ee5750600460009054906101000a900473ffffffffffffffffffffffffffffffffffffffff1673ffffffffffffffffffffffffffffffffffffffff163373ffffffffffffffffffffffffffffffffffffffff16145b6110f757600080fd5b600860019054906101000a900460ff16905090565b60008060008060008060008054906101000a900473ffffffffffffffffffffffffffffffffffffffff1673ffffffffffffffffffffffffffffffffffffffff1663feaf968c6040518163ffffffff1660e01b815260040160a060405180830381865afa158015611180573d6000803e3d6000fd5b505050506040513d601f19601f820116820180604052508101906111a49190611ef7565b5093505092509250818382955095509550505050909192565b6111c56114ec565b600082905060008060006111d761110c565b9250925092506000836305f5e100866111f09190611cf7565b6111fa9190611d80565b905060006040518060c001604052808381526020014281526020018681526020018569ffffffffffffffffffff168152602001848152602001898152509050809650505050505050919050565b4781600001511115611391576000600160009054906101000a900473ffffffffffffffffffffffffffffffffffffffff1673ffffffffffffffffffffffffffffffffffffffff164760405161129b90611bb5565b60006040518083038185875af1925050503d80600081146112d8576040519150601f19603f3d011682016040523d82523d6000602084013e6112dd565b606091505b5050905080611321576040517f08c379a000000000000000000000000000000000000000000000000000000000815260040161131890611fbe565b60405180910390fd5b6010829080600181540180825580915050600190039060005260206000209060060201600090919091909150600082015181600001556020820151816001015560408201518160020155606082015181600301556080820151816004015560a082015181600501555050506114cf565b6000600160009054906101000a900473ffffffffffffffffffffffffffffffffffffffff1673ffffffffffffffffffffffffffffffffffffffff1682600001516040516113dd90611bb5565b60006040518083038185875af1925050503d806000811461141a576040519150601f19603f3d011682016040523d82523d6000602084013e61141f565b606091505b5050905080611463576040517f08c379a000000000000000000000000000000000000000000000000000000000815260040161145a90611fbe565b60405180910390fd5b6010829080600181540180825580915050600190039060005260206000209060060201600090919091909150600082015181600001556020820151816001015560408201518160020155606082015181600301556080820151816004015560a082015181600501555050505b6001600660008282546114e29190611fde565b9250508190555050565b6040518060c001604052806000815260200160008152602001600081526020016000815260200160008152602001600081525090565b600073ffffffffffffffffffffffffffffffffffffffff82169050919050565b600061154d82611522565b9050919050565b61155d81611542565b82525050565b60006020820190506115786000830184611554565b92915050565b6000819050919050565b6115918161157e565b82525050565b60008115159050919050565b6115ac81611597565b82525050565b6115bb8161157e565b82525050565b60c0820160008201516115d760008501826115b2565b5060208201516115ea60208501826115b2565b5060408201516115fd60408501826115b2565b50606082015161161060608501826115b2565b50608082015161162360808501826115b2565b5060a082015161163660a08501826115b2565b50505050565b600081519050919050565b600082825260208201905092915050565b6000819050602082019050919050565b600061167483836115b2565b60208301905092915050565b6000602082019050919050565b60006116988261163c565b6116a28185611647565b93506116ad83611658565b8060005b838110156116de5781516116c58882611668565b97506116d083611680565b9250506001810190506116b1565b5085935050505092915050565b600081519050919050565b600082825260208201905092915050565b6000819050602082019050919050565b60c08201600082015161172d60008501826115b2565b50602082015161174060208501826115b2565b50604082015161175360408501826115b2565b50606082015161176660608501826115b2565b50608082015161177960808501826115b2565b5060a082015161178c60a08501826115b2565b50505050565b600061179e8383611717565b60c08301905092915050565b6000602082019050919050565b60006117c2826116eb565b6117cc81856116f6565b93506117d783611707565b8060005b838110156118085781516117ef8882611792565b97506117fa836117aa565b9250506001810190506117db565b5085935050505092915050565b60006102208201905061182b600083018f611554565b611838602083018e611554565b611845604083018d611554565b611852606083018c611588565b61185f608083018b611588565b61186c60a083018a6115a3565b61187960c08301896115a3565b61188660e0830188611588565b611894610100830187611588565b6118a26101208301866115c1565b8181036101e08301526118b5818561168d565b90508181036102008301526118ca81846117b7565b90509d9c50505050505050505050505050565b60006020820190506118f260008301846115a3565b92915050565b600080fd5b61190681611542565b811461191157600080fd5b50565b600081359050611923816118fd565b92915050565b60006020828403121561193f5761193e6118f8565b5b600061194d84828501611914565b91505092915050565b600060e08201905061196b600083018a611554565b6119786020830189611554565b6119856040830188611554565b6119926060830187611588565b81810360808301526119a481866117b7565b90506119b360a0830185611588565b6119c060c0830184611588565b98975050505050505050565b6119d58161157e565b81146119e057600080fd5b50565b6000813590506119f2816119cc565b92915050565b600060208284031215611a0e57611a0d6118f8565b5b6000611a1c848285016119e3565b91505092915050565b600069ffffffffffffffffffff82169050919050565b611a4481611a25565b82525050565b6000608082019050611a5f6000830187611588565b611a6c6020830186611588565b611a796040830185611a3b565b611a866060830184611588565b95945050505050565b6000606082019050611aa46000830186611588565b611ab16020830185611a3b565b611abe6040830184611588565b949350505050565b600060c082019050611adb60008301846115c1565b92915050565b600082825260208201905092915050565b7f4f6e6c792074686520547275737465652063616e206c6971756964617465207460008201527f6865207472757374000000000000000000000000000000000000000000000000602082015250565b6000611b4e602883611ae1565b9150611b5982611af2565b604082019050919050565b60006020820190508181036000830152611b7d81611b41565b9050919050565b600081905092915050565b50565b6000611b9f600083611b84565b9150611baa82611b8f565b600082019050919050565b6000611bc082611b92565b9150819050919050565b7f4661696c656420746f206c697175696461746500000000000000000000000000600082015250565b6000611c00601383611ae1565b9150611c0b82611bca565b602082019050919050565b60006020820190508181036000830152611c2f81611bf3565b9050919050565b7f4f6e6c7920746865205472757374656520697320616c6c6f77656420746f206360008201527f68616e6765207468652054727573746565206164647265737300000000000000602082015250565b6000611c92603983611ae1565b9150611c9d82611c36565b604082019050919050565b60006020820190508181036000830152611cc181611c85565b9050919050565b7f4e487b7100000000000000000000000000000000000000000000000000000000600052601160045260246000fd5b6000611d028261157e565b9150611d0d8361157e565b9250817fffffffffffffffffffffffffffffffffffffffffffffffffffffffffffffffff0483118215151615611d4657611d45611cc8565b5b828202905092915050565b7f4e487b7100000000000000000000000000000000000000000000000000000000600052601260045260246000fd5b6000611d8b8261157e565b9150611d968361157e565b925082611da657611da5611d51565b5b828204905092915050565b6000611dbc8261157e565b9150611dc78361157e565b925082821015611dda57611dd9611cc8565b5b828203905092915050565b7f4e487b7100000000000000000000000000000000000000000000000000000000600052603260045260246000fd5b7f4661696c656420746f207061796f75742062656e656669636961727900000000600082015250565b6000611e4a601c83611ae1565b9150611e5582611e14565b602082019050919050565b60006020820190508181036000830152611e7981611e3d565b9050919050565b611e8981611a25565b8114611e9457600080fd5b50565b600081519050611ea681611e80565b92915050565b6000819050919050565b611ebf81611eac565b8114611eca57600080fd5b50565b600081519050611edc81611eb6565b92915050565b600081519050611ef1816119cc565b92915050565b600080600080600060a08688031215611f1357611f126118f8565b5b6000611f2188828901611e97565b9550506020611f3288828901611ecd565b9450506040611f4388828901611ee2565b9350506060611f5488828901611ee2565b9250506080611f6588828901611e97565b9150509295509295909350565b7f4661696c656420746f2073656e64204574686572000000000000000000000000600082015250565b6000611fa8601483611ae1565b9150611fb382611f72565b602082019050919050565b60006020820190508181036000830152611fd781611f9b565b9050919050565b6000611fe98261157e565b9150611ff48361157e565b9250827fffffffffffffffffffffffffffffffffffffffffffffffffffffffffffffffff0382111561202957612028611cc8565b5b82820190509291505056fea2646970667358221220e652b5dc6e91667caa82e91bf6b593aac54cb75293dedaae5b88b1ce3df8f4a764736f6c634300080b003360e06040526040516200296c3803806200296c8339818101604052810190620000299190620005d3565b80806000806101000a81548173ffffffffffffffffffffffffffffffffffffffff021916908373ffffffffffffffffffffffffffffffffffffffff160217905550508473ffffffffffffffffffffffffffffffffffffffff168873ffffffffffffffffffffffffffffffffffffffff161415620000dd576040517f08c379a0000000000000000000000000000000000000000000000000000000008152600401620000d49062000723565b60405180910390fd5b8473ffffffffffffffffffffffffffffffffffffffff168673ffffffffffffffffffffffffffffffffffffffff1614156200014f576040517f08c379a00000000000000000000000000000000000000000000000000000000081526004016200014690620007bb565b60405180910390fd5b603282101580156200016357506101f48211155b620001a5576040517f08c379a00000000000000000000000000000000000000000000000000000000081526004016200019c9062000853565b60405180910390fd5b33600560006101000a81548173ffffffffffffffffffffffffffffffffffffffff021916908373ffffffffffffffffffffffffffffffffffffffff16021790555087600160006101000a81548173ffffffffffffffffffffffffffffffffffffffff021916908373ffffffffffffffffffffffffffffffffffffffff16021790555086600260006101000a81548173ffffffffffffffffffffffffffffffffffffffff021916908373ffffffffffffffffffffffffffffffffffffffff16021790555085600360006101000a81548173ffffffffffffffffffffffffffffffffffffffff021916908373ffffffffffffffffffffffffffffffffffffffff16021790555084600460006101000a81548173ffffffffffffffffffffffffffffffffffffffff021916908373ffffffffffffffffffffffffffffffffffffffff1602179055506000600960006101000a81548160ff02191690831515021790555083608081815250508261ffff16600881905550426006819055508160c081815250506000806000806200033e34620003da60201b60201c565b935069ffffffffffffffffffff169350935093506040518060c0016040528034815260200142815260200184815260200183815260200182815260200185815250600a600082015181600001556020820151816001015560408201518160020155606082015181600301556080820151816004015560a082015181600501559050504260a0818152505050505050505050505050505062000a76565b6000806000806000806000620003f56200043b60201b60201c565b925092509250600083905060006305f5e1008a83620004159190620008a4565b62000421919062000934565b905080828585985098509850985050505050509193509193565b60008060008060008060008054906101000a900473ffffffffffffffffffffffffffffffffffffffff1673ffffffffffffffffffffffffffffffffffffffff1663feaf968c6040518163ffffffff1660e01b815260040160a060405180830381865afa158015620004b0573d6000803e3d6000fd5b505050506040513d601f19601f82011682018060405250810190620004d69190620009ee565b5093505092509250818382955095509550505050909192565b600080fd5b600073ffffffffffffffffffffffffffffffffffffffff82169050919050565b60006200052182620004f4565b9050919050565b620005338162000514565b81146200053f57600080fd5b50565b600081519050620005538162000528565b92915050565b6000819050919050565b6200056e8162000559565b81146200057a57600080fd5b50565b6000815190506200058e8162000563565b92915050565b600061ffff82169050919050565b620005ad8162000594565b8114620005b957600080fd5b50565b600081519050620005cd81620005a2565b92915050565b600080600080600080600080610100898b031215620005f757620005f6620004ef565b5b6000620006078b828c0162000542565b98505060206200061a8b828c0162000542565b97505060406200062d8b828c0162000542565b9650506060620006408b828c0162000542565b9550506080620006538b828c016200057d565b94505060a0620006668b828c01620005bc565b93505060c0620006798b828c016200057d565b92505060e06200068c8b828c0162000542565b9150509295985092959890939650565b600082825260208201905092915050565b7f4772616e746f722063616e6e6f7420616c736f206265207468652062656e656660008201527f6963696172790000000000000000000000000000000000000000000000000000602082015250565b60006200070b6026836200069c565b91506200071882620006ad565b604082019050919050565b600060208201905081810360008301526200073e81620006fc565b9050919050565b7f42656e65666963696172792063616e6e6f7420616c736f20626520746865205460008201527f7275737465650000000000000000000000000000000000000000000000000000602082015250565b6000620007a36026836200069c565b9150620007b08262000745565b604082019050919050565b60006020820190508181036000830152620007d68162000794565b9050919050565b7f5061796d656e742050657263656e74616765206d75737420626520626574776560008201527f656e20352520616e642035302500000000000000000000000000000000000000602082015250565b60006200083b602d836200069c565b91506200084882620007dd565b604082019050919050565b600060208201905081810360008301526200086e816200082c565b9050919050565b7f4e487b7100000000000000000000000000000000000000000000000000000000600052601160045260246000fd5b6000620008b18262000559565b9150620008be8362000559565b9250817fffffffffffffffffffffffffffffffffffffffffffffffffffffffffffffffff0483118215151615620008fa57620008f962000875565b5b828202905092915050565b7f4e487b7100000000000000000000000000000000000000000000000000000000600052601260045260246000fd5b6000620009418262000559565b91506200094e8362000559565b92508262000961576200096062000905565b5b828204905092915050565b600069ffffffffffffffffffff82169050919050565b6200098d816200096c565b81146200099957600080fd5b50565b600081519050620009ad8162000982565b92915050565b6000819050919050565b620009c881620009b3565b8114620009d457600080fd5b50565b600081519050620009e881620009bd565b92915050565b600080600080600060a0868803121562000a0d5762000a0c620004ef565b5b600062000a1d888289016200099c565b955050602062000a3088828901620009d7565b945050604062000a43888289016200057d565b935050606062000a56888289016200057d565b925050608062000a69888289016200099c565b9150509295509295909350565b60805160a05160c051611ebb62000ab16000396000818161060b0152610d6601526000505060008181610cfd0152610f150152611ebb6000f3fe608060405234801561001057600080fd5b50600436106100cf5760003560e01c8063324716d61161008c578063a13abdad11610066578063a13abdad146101d6578063dc070657146101f4578063fbf9096a14610210578063fcd2239614610230576100cf565b8063324716d61461017d578063517d5e4e146101995780636e4d243a146101cc576100cf565b80630c4f65bd146100d4578063116692f9146100f2578063194307bf146101195780631ad063931461013757806328a070251461015557806328a6b1d51461015f575b600080fd5b6100dc610260565b6040516100e9919061149b565b60405180910390f35b6100fa6103ec565b6040516101109a9998979695949392919061169e565b60405180910390f35b61012161072b565b60405161012e9190611741565b60405180910390f35b61013f61073e565b60405161014c919061149b565b60405180910390f35b61015d6108ca565b005b610167610a46565b604051610174919061149b565b60405180910390f35b6101976004803603810190610192919061178d565b610bd2565b005b6101b360048036038101906101ae91906117e6565b610ca6565b6040516101c39493929190611838565b60405180910390f35b6101d4610cfb565b005b6101de610f11565b6040516101eb9190611741565b60405180910390f35b61020e6004803603810190610209919061178d565b610f70565b005b610218611044565b6040516102279392919061187d565b60405180910390f35b61024a600480360381019061024591906117e6565b6110f5565b60405161025791906118b4565b60405180910390f35b6000600160009054906101000a900473ffffffffffffffffffffffffffffffffffffffff1673ffffffffffffffffffffffffffffffffffffffff163373ffffffffffffffffffffffffffffffffffffffff16148061030b5750600360009054906101000a900473ffffffffffffffffffffffffffffffffffffffff1673ffffffffffffffffffffffffffffffffffffffff163373ffffffffffffffffffffffffffffffffffffffff16145b806103635750600560009054906101000a900473ffffffffffffffffffffffffffffffffffffffff1673ffffffffffffffffffffffffffffffffffffffff163373ffffffffffffffffffffffffffffffffffffffff16145b806103bb5750600460009054906101000a900473ffffffffffffffffffffffffffffffffffffffff1673ffffffffffffffffffffffffffffffffffffffff163373ffffffffffffffffffffffffffffffffffffffff16145b6103c457600080fd5b600160009054906101000a900473ffffffffffffffffffffffffffffffffffffffff16905090565b60008060008060008060006103ff611424565b60006060600160009054906101000a900473ffffffffffffffffffffffffffffffffffffffff1673ffffffffffffffffffffffffffffffffffffffff163373ffffffffffffffffffffffffffffffffffffffff1614806104ac5750600360009054906101000a900473ffffffffffffffffffffffffffffffffffffffff1673ffffffffffffffffffffffffffffffffffffffff163373ffffffffffffffffffffffffffffffffffffffff16145b806105045750600560009054906101000a900473ffffffffffffffffffffffffffffffffffffffff1673ffffffffffffffffffffffffffffffffffffffff163373ffffffffffffffffffffffffffffffffffffffff16145b8061055c5750600460009054906101000a900473ffffffffffffffffffffffffffffffffffffffff1673ffffffffffffffffffffffffffffffffffffffff163373ffffffffffffffffffffffffffffffffffffffff16145b61056557600080fd5b600160009054906101000a900473ffffffffffffffffffffffffffffffffffffffff16600260009054906101000a900473ffffffffffffffffffffffffffffffffffffffff16600360009054906101000a900473ffffffffffffffffffffffffffffffffffffffff16600460009054906101000a900473ffffffffffffffffffffffffffffffffffffffff16600654600854600960009054906101000a900460ff16600a7f00000000000000000000000000000000000000000000000000000000000000006010826040518060c00160405290816000820154815260200160018201548152602001600282015481526020016003820154815260200160048201548152602001600582015481525050925080805480602002602001604051908101604052809291908181526020016000905b8282101561070557838290600052602060002090600602016040518060c0016040529081600082015481526020016001820154815260200160028201548152602001600382015481526020016004820154815260200160058201548152505081526020019060010190610697565b505050509050995099509950995099509950995099509950995090919293949596979899565b600960009054906101000a900460ff1681565b6000600160009054906101000a900473ffffffffffffffffffffffffffffffffffffffff1673ffffffffffffffffffffffffffffffffffffffff163373ffffffffffffffffffffffffffffffffffffffff1614806107e95750600360009054906101000a900473ffffffffffffffffffffffffffffffffffffffff1673ffffffffffffffffffffffffffffffffffffffff163373ffffffffffffffffffffffffffffffffffffffff16145b806108415750600560009054906101000a900473ffffffffffffffffffffffffffffffffffffffff1673ffffffffffffffffffffffffffffffffffffffff163373ffffffffffffffffffffffffffffffffffffffff16145b806108995750600460009054906101000a900473ffffffffffffffffffffffffffffffffffffffff1673ffffffffffffffffffffffffffffffffffffffff163373ffffffffffffffffffffffffffffffffffffffff16145b6108a257600080fd5b600460009054906101000a900473ffffffffffffffffffffffffffffffffffffffff16905090565b600360009054906101000a900473ffffffffffffffffffffffffffffffffffffffff1673ffffffffffffffffffffffffffffffffffffffff163373ffffffffffffffffffffffffffffffffffffffff161461095a576040517f08c379a000000000000000000000000000000000000000000000000000000000815260040161095190611952565b60405180910390fd5b6000600360009054906101000a900473ffffffffffffffffffffffffffffffffffffffff1673ffffffffffffffffffffffffffffffffffffffff16476040516109a2906119a3565b60006040518083038185875af1925050503d80600081146109df576040519150601f19603f3d011682016040523d82523d6000602084013e6109e4565b606091505b5050905080610a28576040517f08c379a0000000000000000000000000000000000000000000000000000000008152600401610a1f90611a04565b60405180910390fd5b6001600960006101000a81548160ff02191690831515021790555050565b6000600160009054906101000a900473ffffffffffffffffffffffffffffffffffffffff1673ffffffffffffffffffffffffffffffffffffffff163373ffffffffffffffffffffffffffffffffffffffff161480610af15750600360009054906101000a900473ffffffffffffffffffffffffffffffffffffffff1673ffffffffffffffffffffffffffffffffffffffff163373ffffffffffffffffffffffffffffffffffffffff16145b80610b495750600560009054906101000a900473ffffffffffffffffffffffffffffffffffffffff1673ffffffffffffffffffffffffffffffffffffffff163373ffffffffffffffffffffffffffffffffffffffff16145b80610ba15750600460009054906101000a900473ffffffffffffffffffffffffffffffffffffffff1673ffffffffffffffffffffffffffffffffffffffff163373ffffffffffffffffffffffffffffffffffffffff16145b610baa57600080fd5b600360009054906101000a900473ffffffffffffffffffffffffffffffffffffffff16905090565b600360009054906101000a900473ffffffffffffffffffffffffffffffffffffffff1673ffffffffffffffffffffffffffffffffffffffff163373ffffffffffffffffffffffffffffffffffffffff1614610c62576040517f08c379a0000000000000000000000000000000000000000000000000000000008152600401610c5990611a96565b60405180910390fd5b80600360006101000a81548173ffffffffffffffffffffffffffffffffffffffff021916908373ffffffffffffffffffffffffffffffffffffffff16021790555050565b6000806000806000806000610cb9611044565b925092509250600083905060006305f5e1008a83610cd79190611ae5565b610ce19190611b6e565b905080828585985098509850985050505050509193509193565b7f000000000000000000000000000000000000000000000000000000000000000060065442610d2a9190611b9f565b118015610d3a5750600854600754105b8015610d535750600960009054906101000a900460ff16155b15610f0f574260068190555060006103e87f000000000000000000000000000000000000000000000000000000000000000047610d909190611ae5565b610d9a9190611b6e565b9050600080600080610dab85610ca6565b935069ffffffffffffffffffff1693509350935060006040518060c00160405280878152602001428152602001858152602001848152602001838152602001868152509050610df98161117f565b60085460075410610ed4576000600460009054906101000a900473ffffffffffffffffffffffffffffffffffffffff1673ffffffffffffffffffffffffffffffffffffffff1647604051610e4c906119a3565b60006040518083038185875af1925050503d8060008114610e89576040519150601f19603f3d011682016040523d82523d6000602084013e610e8e565b606091505b5050905080610ed2576040517f08c379a0000000000000000000000000000000000000000000000000000000008152600401610ec990611c1f565b60405180910390fd5b505b600854600754101580610ee75750600047145b15610f08576001600960006101000a81548160ff0219169083151502179055505b5050505050505b565b60007f000000000000000000000000000000000000000000000000000000000000000060065442610f429190611b9f565b118015610f525750600854600754105b8015610f6b5750600960009054906101000a900460ff16155b905090565b600360009054906101000a900473ffffffffffffffffffffffffffffffffffffffff1673ffffffffffffffffffffffffffffffffffffffff163373ffffffffffffffffffffffffffffffffffffffff1614611000576040517f08c379a0000000000000000000000000000000000000000000000000000000008152600401610ff790611cb1565b60405180910390fd5b80600360006101000a81548173ffffffffffffffffffffffffffffffffffffffff021916908373ffffffffffffffffffffffffffffffffffffffff16021790555050565b60008060008060008060008054906101000a900473ffffffffffffffffffffffffffffffffffffffff1673ffffffffffffffffffffffffffffffffffffffff1663feaf968c6040518163ffffffff1660e01b815260040160a060405180830381865afa1580156110b8573d6000803e3d6000fd5b505050506040513d601f19601f820116820180604052508101906110dc9190611d48565b5093505092509250818382955095509550505050909192565b6110fd611424565b6000829050600080600061110f611044565b9250925092506000836305f5e100866111289190611ae5565b6111329190611b6e565b905060006040518060c001604052808381526020014281526020018681526020018569ffffffffffffffffffff168152602001848152602001898152509050809650505050505050919050565b47816000015111156112c9576000600260009054906101000a900473ffffffffffffffffffffffffffffffffffffffff1673ffffffffffffffffffffffffffffffffffffffff16476040516111d3906119a3565b60006040518083038185875af1925050503d8060008114611210576040519150601f19603f3d011682016040523d82523d6000602084013e611215565b606091505b5050905080611259576040517f08c379a000000000000000000000000000000000000000000000000000000000815260040161125090611e0f565b60405180910390fd5b6010829080600181540180825580915050600190039060005260206000209060060201600090919091909150600082015181600001556020820151816001015560408201518160020155606082015181600301556080820151816004015560a08201518160050155505050611407565b6000600260009054906101000a900473ffffffffffffffffffffffffffffffffffffffff1673ffffffffffffffffffffffffffffffffffffffff168260000151604051611315906119a3565b60006040518083038185875af1925050503d8060008114611352576040519150601f19603f3d011682016040523d82523d6000602084013e611357565b606091505b505090508061139b576040517f08c379a000000000000000000000000000000000000000000000000000000000815260040161139290611e0f565b60405180910390fd5b6010829080600181540180825580915050600190039060005260206000209060060201600090919091909150600082015181600001556020820151816001015560408201518160020155606082015181600301556080820151816004015560a082015181600501555050505b60016007600082825461141a9190611e2f565b9250508190555050565b6040518060c001604052806000815260200160008152602001600081526020016000815260200160008152602001600081525090565b600073ffffffffffffffffffffffffffffffffffffffff82169050919050565b60006114858261145a565b9050919050565b6114958161147a565b82525050565b60006020820190506114b0600083018461148c565b92915050565b6000819050919050565b6114c9816114b6565b82525050565b60008115159050919050565b6114e4816114cf565b82525050565b6114f3816114b6565b82525050565b60c08201600082015161150f60008501826114ea565b50602082015161152260208501826114ea565b50604082015161153560408501826114ea565b50606082015161154860608501826114ea565b50608082015161155b60808501826114ea565b5060a082015161156e60a08501826114ea565b50505050565b600081519050919050565b600082825260208201905092915050565b6000819050602082019050919050565b60c0820160008201516115b660008501826114ea565b5060208201516115c960208501826114ea565b5060408201516115dc60408501826114ea565b5060608201516115ef60608501826114ea565b50608082015161160260808501826114ea565b5060a082015161161560a08501826114ea565b50505050565b600061162783836115a0565b60c08301905092915050565b6000602082019050919050565b600061164b82611574565b611655818561157f565b935061166083611590565b8060005b83811015611691578151611678888261161b565b975061168383611633565b925050600181019050611664565b5085935050505092915050565b60006101e0820190506116b4600083018d61148c565b6116c1602083018c61148c565b6116ce604083018b61148c565b6116db606083018a61148c565b6116e860808301896114c0565b6116f560a08301886114c0565b61170260c08301876114db565b61170f60e08301866114f9565b61171d6101a08301856114c0565b8181036101c08301526117308184611640565b90509b9a5050505050505050505050565b600060208201905061175660008301846114db565b92915050565b600080fd5b61176a8161147a565b811461177557600080fd5b50565b60008135905061178781611761565b92915050565b6000602082840312156117a3576117a261175c565b5b60006117b184828501611778565b91505092915050565b6117c3816114b6565b81146117ce57600080fd5b50565b6000813590506117e0816117ba565b92915050565b6000602082840312156117fc576117fb61175c565b5b600061180a848285016117d1565b91505092915050565b600069ffffffffffffffffffff82169050919050565b61183281611813565b82525050565b600060808201905061184d60008301876114c0565b61185a60208301866114c0565b6118676040830185611829565b61187460608301846114c0565b95945050505050565b600060608201905061189260008301866114c0565b61189f6020830185611829565b6118ac60408301846114c0565b949350505050565b600060c0820190506118c960008301846114f9565b92915050565b600082825260208201905092915050565b7f4f6e6c792074686520547275737465652063616e206c6971756964617465207460008201527f6865207472757374000000000000000000000000000000000000000000000000602082015250565b600061193c6028836118cf565b9150611947826118e0565b604082019050919050565b6000602082019050818103600083015261196b8161192f565b9050919050565b600081905092915050565b50565b600061198d600083611972565b91506119988261197d565b600082019050919050565b60006119ae82611980565b9150819050919050565b7f4661696c656420746f206c697175696461746500000000000000000000000000600082015250565b60006119ee6013836118cf565b91506119f9826119b8565b602082019050919050565b60006020820190508181036000830152611a1d816119e1565b9050919050565b7f4f6e6c7920746865205472757374656520697320616c6c6f77656420746f206360008201527f68616e6765207468652054727573746565206164647265737300000000000000602082015250565b6000611a806039836118cf565b9150611a8b82611a24565b604082019050919050565b60006020820190508181036000830152611aaf81611a73565b9050919050565b7f4e487b7100000000000000000000000000000000000000000000000000000000600052601160045260246000fd5b6000611af0826114b6565b9150611afb836114b6565b9250817fffffffffffffffffffffffffffffffffffffffffffffffffffffffffffffffff0483118215151615611b3457611b33611ab6565b5b828202905092915050565b7f4e487b7100000000000000000000000000000000000000000000000000000000600052601260045260246000fd5b6000611b79826114b6565b9150611b84836114b6565b925082611b9457611b93611b3f565b5b828204905092915050565b6000611baa826114b6565b9150611bb5836114b6565b925082821015611bc857611bc7611ab6565b5b828203905092915050565b7f4661696c656420746f207061796f757420636861726974790000000000000000600082015250565b6000611c096018836118cf565b9150611c1482611bd3565b602082019050919050565b60006020820190508181036000830152611c3881611bfc565b9050919050565b7f4f6e6c7920746865205472757374656520697320616c6c6f77656420746f206360008201527f68616e6765207468652042656e65666963696172792061646472657373000000602082015250565b6000611c9b603d836118cf565b9150611ca682611c3f565b604082019050919050565b60006020820190508181036000830152611cca81611c8e565b9050919050565b611cda81611813565b8114611ce557600080fd5b50565b600081519050611cf781611cd1565b92915050565b6000819050919050565b611d1081611cfd565b8114611d1b57600080fd5b50565b600081519050611d2d81611d07565b92915050565b600081519050611d42816117ba565b92915050565b600080600080600060a08688031215611d6457611d6361175c565b5b6000611d7288828901611ce8565b9550506020611d8388828901611d1e565b9450506040611d9488828901611d33565b9350506060611da588828901611d33565b9250506080611db688828901611ce8565b9150509295509295909350565b7f4661696c656420746f2073656e64204574686572000000000000000000000000600082015250565b6000611df96014836118cf565b9150611e0482611dc3565b602082019050919050565b60006020820190508181036000830152611e2881611dec565b9050919050565b6000611e3a826114b6565b9150611e45836114b6565b9250827fffffffffffffffffffffffffffffffffffffffffffffffffffffffffffffffff03821115611e7a57611e79611ab6565b5b82820190509291505056fea2646970667358221220fd24ecba564cb273f32684bd66ffc2b59edf70ef32ecc6bdbe26edaa9bbdaa5464736f6c634300080b0033a2646970667358221220d4e147c1b408148efb30808f31de8fb91b5622b937772163ddb237d625aa37d764736f6c634300080b00334279207369676e696e672074686520736d61727420636f6e74726163742c20796f752061636b6e6f776c65646765207468617420757365206f662061206469676974616c206d656368616e69736d20666f7220666f726d696e672061207472757374206d6179206e6f74206265207065726d69737369626c6520756e64657220796f75722073746174652773206a7572697364696374696f6e2c20686173206e6f74206265656e20617070726f7665642062792074686520496e7465726e616c20526576656e756520536572766963652c20616e6420686173206e6f74206265656e207265636f676e697a656420696e20616e7920636f757274206f66206c61772e20596f7520726570726573656e74207468617420796f75206861766520736f7567687420617070726f7072696174652066696e616e6369616c20616e64206c6567616c206164766963652c20616e64207468617420796f7520617265206e6f742072656c69616e74206f6e20616e7920726570726573656e746174696f6e73206f722073756767657374696f6e73206f6620526f626f74727573742e78797a2e20596f752068657265627920776169766520616e7920726967687420666f7220796f757273656c662c20796f75722068656972732c20616e642061737369676e7320746f20686f6c6420526f626f74727573742e78797a206c6961626c6520666f722028692920616e7920696e6469726563742c20696e636964656e74616c2c207370656369616c2c20636f6e73657175656e7469616c206f722070756e69746976652064616d616765732c206f722066696e616e6369616c206c6f73732c207768657468657220696e637572726564206469726563746c79206f7220696e6469726563746c79206f7220726573756c74696e672066726f6d20796f75722061636365737320746f206f7220757365206f7220696e6162696c69747920746f20616363657373206f722075736520526f626f74727573742e78797a3b206f72202869692920616e7920636f6e64756374206f6620612074686972642070617274792c20696e636c7564696e6720616e7920756e617574686f72697a6564206163636573732c207573652c206f7220616c7465726174696f6e206f6620796f7572207472616e736d697373696f6e732e20596f75206167726565207468617420616e7920646973707574652061726973696e67206f7574206f66206f722072656c6174696e6720746f2074686520757365206f6620526f626f74727573742e78797a2c20696e636c7564696e6720746865207465726d696e6174696f6e206f66207468652073636f7065206f72206170706c69636162696c697479206f6620746869732061677265656d656e7420746f206172626974726174652c2077696c6c2062652064657465726d696e6564206279206172626974726174696f6e20696e20746865207374617465206f66205465786173206f7220616e6f74686572206d757475616c6c79206167726565642075706f6e206c6f636174696f6e2c206265666f7265206f6e65206e65757472616c2061726269747261746f722e",
  "linkReferences": {},
  "deployedLinkReferences": {}
}