{
  "_format": "hh-sol-artifact-1",
  "contractName": "RoboTrustDeployer",
  "sourceName": "contracts/RoboTrustDeployer.sol",
  "abi": [
    {
      "inputs": [
        {
          "internalType": "address",
          "name": "_priceFeedAddress",
          "type": "address"
        }
      ],
      "stateMutability": "nonpayable",
      "type": "constructor"
    },
    {
      "inputs": [
        {
          "internalType": "uint256",
          "name": "_period",
          "type": "uint256"
        },
        {
          "internalType": "uint256",
          "name": "_numberOfYears",
          "type": "uint256"
        },
        {
          "internalType": "uint256[]",
          "name": "_paymentAmounts",
          "type": "uint256[]"
        },
        {
          "internalType": "uint256",
          "name": "_annuityPV",
          "type": "uint256"
        },
        {
          "internalType": "address",
          "name": "_trustee",
          "type": "address"
        },
        {
          "internalType": "address",
          "name": "_beneficiary",
          "type": "address"
        },
        {
          "internalType": "bool",
          "name": "_showAccounting",
          "type": "bool"
        },
        {
          "internalType": "string",
          "name": "_disclaimer",
          "type": "string"
        }
      ],
      "name": "createTrust",
      "outputs": [
        {
          "internalType": "contract RoboTrust",
          "name": "",
          "type": "address"
        }
      ],
      "stateMutability": "payable",
      "type": "function"
    },
    {
      "inputs": [
        {
          "internalType": "address",
          "name": "_beneficiary",
          "type": "address"
        }
      ],
      "name": "getBeneficiaryTrusts",
      "outputs": [
        {
          "internalType": "uint256[]",
          "name": "",
          "type": "uint256[]"
        }
      ],
      "stateMutability": "view",
      "type": "function"
    },
    {
      "inputs": [
        {
          "internalType": "address",
          "name": "_owner",
          "type": "address"
        }
      ],
      "name": "getOwnerTrusts",
      "outputs": [
        {
          "internalType": "uint256[]",
          "name": "",
          "type": "uint256[]"
        }
      ],
      "stateMutability": "view",
      "type": "function"
    },
    {
      "inputs": [
        {
          "internalType": "address",
          "name": "_trustee",
          "type": "address"
        }
      ],
      "name": "getTrusteeTrusts",
      "outputs": [
        {
          "internalType": "uint256[]",
          "name": "",
          "type": "uint256[]"
        }
      ],
      "stateMutability": "view",
      "type": "function"
    },
    {
      "inputs": [
        {
          "internalType": "uint256",
          "name": "",
          "type": "uint256"
        }
      ],
      "name": "trustList",
      "outputs": [
        {
          "internalType": "contract RoboTrust",
          "name": "",
          "type": "address"
        }
      ],
      "stateMutability": "view",
      "type": "function"
    }
  ],
  "bytecode": "0x60806040523480156200001157600080fd5b5060405162004583380380620045838339818101604052810190620000379190620001cd565b806000806101000a81548173ffffffffffffffffffffffffffffffffffffffff021916908373ffffffffffffffffffffffffffffffffffffffff160217905550604051806104a0016040528061047d81526020016200410661047d913960029080519060200190620000ab929190620000b3565b505062000264565b828054620000c1906200022e565b90600052602060002090601f016020900481019282620000e5576000855562000131565b82601f106200010057805160ff191683800117855562000131565b8280016001018555821562000131579182015b828111156200013057825182559160200191906001019062000113565b5b50905062000140919062000144565b5090565b5b808211156200015f57600081600090555060010162000145565b5090565b600080fd5b600073ffffffffffffffffffffffffffffffffffffffff82169050919050565b6000620001958262000168565b9050919050565b620001a78162000188565b8114620001b357600080fd5b50565b600081519050620001c7816200019c565b92915050565b600060208284031215620001e657620001e562000163565b5b6000620001f684828501620001b6565b91505092915050565b7f4e487b7100000000000000000000000000000000000000000000000000000000600052602260045260246000fd5b600060028204905060018216806200024757607f821691505b602082108114156200025e576200025d620001ff565b5b50919050565b613e9280620002746000396000f3fe608060405260043610620000505760003560e01c806347e917e514620000555780635157dff5146200008b578063675c667c14620000cf578063be2b4fcf1462000113578063ce1e25a01462000157575b600080fd5b6200007360048036038101906200006d919062000af4565b6200019b565b60405162000082919062000c66565b60405180910390f35b3480156200009857600080fd5b50620000b76004803603810190620000b1919062000c83565b620005ad565b604051620000c6919062000d83565b60405180910390f35b348015620000dc57600080fd5b50620000fb6004803603810190620000f5919062000c83565b62000646565b6040516200010a919062000d83565b60405180910390f35b3480156200012057600080fd5b506200013f600480360381019062000139919062000c83565b620006df565b6040516200014e919062000d83565b60405180910390f35b3480156200016457600080fd5b506200018360048036038101906200017d919062000da7565b62000778565b60405162000192919062000c66565b60405180910390f35b600081604051602001620001b0919062000e5c565b604051602081830303815290604052805190602001206002604051602001620001da919062000f7a565b604051602081830303815290604052805190602001201462000233576040517f08c379a00000000000000000000000000000000000000000000000000000000081526004016200022a9062000ff4565b60405180910390fd5b6000343387878d8d8d8d60008054906101000a900473ffffffffffffffffffffffffffffffffffffffff168c6040516200026d90620007b8565b620002819998979695949392919062001049565b6040518091039082f09050801580156200029f573d6000803e3d6000fd5b509050600060018054905090506001829080600181540180825580915050600190039060005260206000200160009091909190916101000a81548173ffffffffffffffffffffffffffffffffffffffff021916908373ffffffffffffffffffffffffffffffffffffffff160217905550600360003373ffffffffffffffffffffffffffffffffffffffff1673ffffffffffffffffffffffffffffffffffffffff168152602001908152602001600020819080600181540180825580915050600190039060005260206000200160009091909190915055600460008373ffffffffffffffffffffffffffffffffffffffff166328a6b1d56040518163ffffffff1660e01b8152600401602060405180830381865afa158015620003c5573d6000803e3d6000fd5b505050506040513d601f19601f82011682018060405250810190620003eb919062001106565b73ffffffffffffffffffffffffffffffffffffffff1673ffffffffffffffffffffffffffffffffffffffff1681526020019081526020016000208190806001815401808255809150506001900390600052602060002001600090919091909150558173ffffffffffffffffffffffffffffffffffffffff1663de9d390a6040518163ffffffff1660e01b8152600401602060405180830381865afa15801562000498573d6000803e3d6000fd5b505050506040513d601f19601f82011682018060405250810190620004be91906200114f565b156200059c57600560008373ffffffffffffffffffffffffffffffffffffffff1663d1eff8956040518163ffffffff1660e01b8152600401602060405180830381865afa15801562000514573d6000803e3d6000fd5b505050506040513d601f19601f820116820180604052508101906200053a919062001106565b73ffffffffffffffffffffffffffffffffffffffff1673ffffffffffffffffffffffffffffffffffffffff1681526020019081526020016000208190806001815401808255809150506001900390600052602060002001600090919091909150555b819250505098975050505050505050565b6060600460008373ffffffffffffffffffffffffffffffffffffffff1673ffffffffffffffffffffffffffffffffffffffff1681526020019081526020016000208054806020026020016040519081016040528092919081815260200182805480156200063a57602002820191906000526020600020905b81548152602001906001019080831162000625575b50505050509050919050565b6060600560008373ffffffffffffffffffffffffffffffffffffffff1673ffffffffffffffffffffffffffffffffffffffff168152602001908152602001600020805480602002602001604051908101604052809291908181526020018280548015620006d357602002820191906000526020600020905b815481526020019060010190808311620006be575b50505050509050919050565b6060600360008373ffffffffffffffffffffffffffffffffffffffff1673ffffffffffffffffffffffffffffffffffffffff1681526020019081526020016000208054806020026020016040519081016040528092919081815260200182805480156200076c57602002820191906000526020600020905b81548152602001906001019080831162000757575b50505050509050919050565b600181815481106200078957600080fd5b906000526020600020016000915054906101000a900473ffffffffffffffffffffffffffffffffffffffff1681565b612cdb806200118283390190565b6000604051905090565b600080fd5b600080fd5b6000819050919050565b620007ef81620007da565b8114620007fb57600080fd5b50565b6000813590506200080f81620007e4565b92915050565b600080fd5b6000601f19601f8301169050919050565b7f4e487b7100000000000000000000000000000000000000000000000000000000600052604160045260246000fd5b62000865826200081a565b810181811067ffffffffffffffff821117156200088757620008866200082b565b5b80604052505050565b60006200089c620007c6565b9050620008aa82826200085a565b919050565b600067ffffffffffffffff821115620008cd57620008cc6200082b565b5b602082029050602081019050919050565b600080fd5b6000620008fa620008f484620008af565b62000890565b9050808382526020820190506020840283018581111562000920576200091f620008de565b5b835b818110156200094d5780620009388882620007fe565b84526020840193505060208101905062000922565b5050509392505050565b600082601f8301126200096f576200096e62000815565b5b813562000981848260208601620008e3565b91505092915050565b600073ffffffffffffffffffffffffffffffffffffffff82169050919050565b6000620009b7826200098a565b9050919050565b620009c981620009aa565b8114620009d557600080fd5b50565b600081359050620009e981620009be565b92915050565b60008115159050919050565b62000a0681620009ef565b811462000a1257600080fd5b50565b60008135905062000a2681620009fb565b92915050565b600080fd5b600067ffffffffffffffff82111562000a4f5762000a4e6200082b565b5b62000a5a826200081a565b9050602081019050919050565b82818337600083830152505050565b600062000a8d62000a878462000a31565b62000890565b90508281526020810184848401111562000aac5762000aab62000a2c565b5b62000ab984828562000a67565b509392505050565b600082601f83011262000ad95762000ad862000815565b5b813562000aeb84826020860162000a76565b91505092915050565b600080600080600080600080610100898b03121562000b185762000b17620007d0565b5b600062000b288b828c01620007fe565b985050602062000b3b8b828c01620007fe565b975050604089013567ffffffffffffffff81111562000b5f5762000b5e620007d5565b5b62000b6d8b828c0162000957565b965050606062000b808b828c01620007fe565b955050608062000b938b828c01620009d8565b94505060a062000ba68b828c01620009d8565b93505060c062000bb98b828c0162000a15565b92505060e089013567ffffffffffffffff81111562000bdd5762000bdc620007d5565b5b62000beb8b828c0162000ac1565b9150509295985092959890939650565b6000819050919050565b600062000c2662000c2062000c1a846200098a565b62000bfb565b6200098a565b9050919050565b600062000c3a8262000c05565b9050919050565b600062000c4e8262000c2d565b9050919050565b62000c608162000c41565b82525050565b600060208201905062000c7d600083018462000c55565b92915050565b60006020828403121562000c9c5762000c9b620007d0565b5b600062000cac84828501620009d8565b91505092915050565b600081519050919050565b600082825260208201905092915050565b6000819050602082019050919050565b62000cec81620007da565b82525050565b600062000d00838362000ce1565b60208301905092915050565b6000602082019050919050565b600062000d268262000cb5565b62000d32818562000cc0565b935062000d3f8362000cd1565b8060005b8381101562000d7657815162000d5a888262000cf2565b975062000d678362000d0c565b92505060018101905062000d43565b5085935050505092915050565b6000602082019050818103600083015262000d9f818462000d19565b905092915050565b60006020828403121562000dc05762000dbf620007d0565b5b600062000dd084828501620007fe565b91505092915050565b600081519050919050565b600081905092915050565b60005b8381101562000e0f57808201518184015260208101905062000df2565b8381111562000e1f576000848401525b50505050565b600062000e328262000dd9565b62000e3e818562000de4565b935062000e5081856020860162000def565b80840191505092915050565b600062000e6a828462000e25565b915081905092915050565b7f4e487b7100000000000000000000000000000000000000000000000000000000600052602260045260246000fd5b6000600282049050600182168062000ebd57607f821691505b6020821081141562000ed45762000ed362000e75565b5b50919050565b60008190508160005260206000209050919050565b6000815462000efe8162000ea4565b62000f0a818662000de4565b9450600182166000811462000f28576001811462000f3a5762000f71565b60ff1983168652818601935062000f71565b62000f458562000eda565b60005b8381101562000f695781548189015260018201915060208101905062000f48565b838801955050505b50505092915050565b600062000f88828462000eef565b915081905092915050565b600082825260208201905092915050565b7f596f75206d757374207369676e206f757220646973636c61696d657200000000600082015250565b600062000fdc601c8362000f93565b915062000fe98262000fa4565b602082019050919050565b600060208201905081810360008301526200100f8162000fcd565b9050919050565b6200102181620009aa565b82525050565b6200103281620007da565b82525050565b6200104381620009ef565b82525050565b60006101208201905062001061600083018c62001016565b62001070602083018b62001016565b6200107f604083018a62001016565b6200108e606083018962001027565b6200109d608083018862001027565b81810360a0830152620010b1818762000d19565b9050620010c260c083018662001027565b620010d160e083018562001016565b620010e161010083018462001038565b9a9950505050505050505050565b6000815190506200110081620009be565b92915050565b6000602082840312156200111f576200111e620007d0565b5b60006200112f84828501620010ef565b91505092915050565b6000815190506200114981620009fb565b92915050565b600060208284031215620011685762001167620007d0565b5b6000620011788482850162001138565b9150509291505056fe61010060405260405162002cdb38038062002cdb83398181016040528101906200002a9190620007b5565b81806000806101000a81548173ffffffffffffffffffffffffffffffffffffffff021916908373ffffffffffffffffffffffffffffffffffffffff160217905550508673ffffffffffffffffffffffffffffffffffffffff168973ffffffffffffffffffffffffffffffffffffffff161415620000de576040517f08c379a0000000000000000000000000000000000000000000000000000000008152600401620000d5906200093a565b60405180910390fd5b600360009054906101000a900473ffffffffffffffffffffffffffffffffffffffff1673ffffffffffffffffffffffffffffffffffffffff168873ffffffffffffffffffffffffffffffffffffffff16141562000172576040517f08c379a00000000000000000000000000000000000000000000000000000000081526004016200016990620009d2565b60405180910390fd5b33600460006101000a81548173ffffffffffffffffffffffffffffffffffffffff021916908373ffffffffffffffffffffffffffffffffffffffff16021790555088600160006101000a81548173ffffffffffffffffffffffffffffffffffffffff021916908373ffffffffffffffffffffffffffffffffffffffff16021790555087600260006101000a81548173ffffffffffffffffffffffffffffffffffffffff021916908373ffffffffffffffffffffffffffffffffffffffff16021790555086600360006101000a81548173ffffffffffffffffffffffffffffffffffffffff021916908373ffffffffffffffffffffffffffffffffffffffff1602179055506000600860006101000a81548160ff02191690831515021790555080600860016101000a81548160ff0219169083151502179055508560808181525050846007819055504260058190555083600f9080519060200190620002d9929190620004de565b50600080600080620002f134620003c960201b60201c565b935069ffffffffffffffffffff169350935093506040518060c00160405280348152602001428152602001848152602001838152602001828152602001858152506009600082015181600001556020820151816001015560408201518160020155606082015181600301556080820151816004015560a082015181600501559050508660c0818152505060008460c0511115620003925760009050620003a5565b60c05185620003a2919062000a23565b90505b8060a081815250504260e08181525050505050505050505050505050505062000c30565b6000806000806000806000620003e46200042a60201b60201c565b925092509250600083905060006305f5e1008a8362000404919062000a5e565b62000410919062000aee565b905080828585985098509850985050505050509193509193565b60008060008060008060008054906101000a900473ffffffffffffffffffffffffffffffffffffffff1673ffffffffffffffffffffffffffffffffffffffff1663feaf968c6040518163ffffffff1660e01b815260040160a060405180830381865afa1580156200049f573d6000803e3d6000fd5b505050506040513d601f19601f82011682018060405250810190620004c5919062000ba8565b5093505092509250818382955095509550505050909192565b8280548282559060005260206000209081019282156200051d579160200282015b828111156200051c578251825591602001919060010190620004ff565b5b5090506200052c919062000530565b5090565b5b808211156200054b57600081600090555060010162000531565b5090565b6000604051905090565b600080fd5b600080fd5b600073ffffffffffffffffffffffffffffffffffffffff82169050919050565b6000620005908262000563565b9050919050565b620005a28162000583565b8114620005ae57600080fd5b50565b600081519050620005c28162000597565b92915050565b6000819050919050565b620005dd81620005c8565b8114620005e957600080fd5b50565b600081519050620005fd81620005d2565b92915050565b600080fd5b6000601f19601f8301169050919050565b7f4e487b7100000000000000000000000000000000000000000000000000000000600052604160045260246000fd5b620006538262000608565b810181811067ffffffffffffffff8211171562000675576200067462000619565b5b80604052505050565b60006200068a6200054f565b905062000698828262000648565b919050565b600067ffffffffffffffff821115620006bb57620006ba62000619565b5b602082029050602081019050919050565b600080fd5b6000620006e8620006e2846200069d565b6200067e565b905080838252602082019050602084028301858111156200070e576200070d620006cc565b5b835b818110156200073b5780620007268882620005ec565b84526020840193505060208101905062000710565b5050509392505050565b600082601f8301126200075d576200075c62000603565b5b81516200076f848260208601620006d1565b91505092915050565b60008115159050919050565b6200078f8162000778565b81146200079b57600080fd5b50565b600081519050620007af8162000784565b92915050565b60008060008060008060008060006101208a8c031215620007db57620007da62000559565b5b6000620007eb8c828d01620005b1565b9950506020620007fe8c828d01620005b1565b9850506040620008118c828d01620005b1565b9750506060620008248c828d01620005ec565b9650506080620008378c828d01620005ec565b95505060a08a015167ffffffffffffffff8111156200085b576200085a6200055e565b5b620008698c828d0162000745565b94505060c06200087c8c828d01620005ec565b93505060e06200088f8c828d01620005b1565b925050610100620008a38c828d016200079e565b9150509295985092959850929598565b600082825260208201905092915050565b7f4772616e746f722063616e6e6f7420616c736f206265207468652062656e656660008201527f6963696172790000000000000000000000000000000000000000000000000000602082015250565b600062000922602683620008b3565b91506200092f82620008c4565b604082019050919050565b60006020820190508181036000830152620009558162000913565b9050919050565b7f42656e65666963696172792063616e6e6f7420616c736f20626520746865205460008201527f7275737465650000000000000000000000000000000000000000000000000000602082015250565b6000620009ba602683620008b3565b9150620009c7826200095c565b604082019050919050565b60006020820190508181036000830152620009ed81620009ab565b9050919050565b7f4e487b7100000000000000000000000000000000000000000000000000000000600052601160045260246000fd5b600062000a3082620005c8565b915062000a3d83620005c8565b92508282101562000a535762000a52620009f4565b5b828203905092915050565b600062000a6b82620005c8565b915062000a7883620005c8565b9250817fffffffffffffffffffffffffffffffffffffffffffffffffffffffffffffffff048311821515161562000ab45762000ab3620009f4565b5b828202905092915050565b7f4e487b7100000000000000000000000000000000000000000000000000000000600052601260045260246000fd5b600062000afb82620005c8565b915062000b0883620005c8565b92508262000b1b5762000b1a62000abf565b5b828204905092915050565b600069ffffffffffffffffffff82169050919050565b62000b478162000b26565b811462000b5357600080fd5b50565b60008151905062000b678162000b3c565b92915050565b6000819050919050565b62000b828162000b6d565b811462000b8e57600080fd5b50565b60008151905062000ba28162000b77565b92915050565b600080600080600060a0868803121562000bc75762000bc662000559565b5b600062000bd78882890162000b56565b955050602062000bea8882890162000b91565b945050604062000bfd88828901620005ec565b935050606062000c1088828901620005ec565b925050608062000c238882890162000b56565b9150509295509295909350565b60805160a05160c05160e05161206a62000c716000396000610b88015260006105ac0152600061058b015260008181610cad0152610e5c015261206a6000f3fe608060405234801561001057600080fd5b50600436106100ea5760003560e01c8063517d5e4e1161008c578063d1eff89511610066578063d1eff89514610217578063de9d390a14610235578063fbf9096a14610253578063fcd2239614610273576100ea565b8063517d5e4e146101bc5780636e4d243a146101ef578063a13abdad146101f9576100ea565b806328a07025116100c857806328a070251461015457806328a6b1d51461015e578063324716d61461017c578063393c59e214610198576100ea565b80630c4f65bd146100ef578063116692f91461010d578063194307bf14610136575b600080fd5b6100f76102a3565b6040516101049190611563565b60405180910390f35b6101156103d7565b60405161012d9c9b9a99989796959493929190611815565b60405180910390f35b61013e610728565b60405161014b91906118dd565b60405180910390f35b61015c61073b565b005b6101666108b7565b6040516101739190611563565b60405180910390f35b61019660048036038101906101919190611929565b6109eb565b005b6101a0610abf565b6040516101b39796959493929190611956565b60405180910390f35b6101d660048036038101906101d191906119f8565b610c56565b6040516101e69493929190611a4a565b60405180910390f35b6101f7610cab565b005b610201610e58565b60405161020e91906118dd565b60405180910390f35b61021f610eb7565b60405161022c9190611563565b60405180910390f35b61023d610feb565b60405161024a91906118dd565b60405180910390f35b61025b61110c565b60405161026a93929190611a8f565b60405180910390f35b61028d600480360381019061028891906119f8565b6111bd565b60405161029a9190611ac6565b60405180910390f35b6000600160009054906101000a900473ffffffffffffffffffffffffffffffffffffffff1673ffffffffffffffffffffffffffffffffffffffff163373ffffffffffffffffffffffffffffffffffffffff16148061034e5750600260009054906101000a900473ffffffffffffffffffffffffffffffffffffffff1673ffffffffffffffffffffffffffffffffffffffff163373ffffffffffffffffffffffffffffffffffffffff16145b806103a65750600460009054906101000a900473ffffffffffffffffffffffffffffffffffffffff1673ffffffffffffffffffffffffffffffffffffffff163373ffffffffffffffffffffffffffffffffffffffff16145b6103af57600080fd5b600160009054906101000a900473ffffffffffffffffffffffffffffffffffffffff16905090565b60008060008060008060008060006103ed6114ec565b606080600160009054906101000a900473ffffffffffffffffffffffffffffffffffffffff1673ffffffffffffffffffffffffffffffffffffffff163373ffffffffffffffffffffffffffffffffffffffff1614806104995750600260009054906101000a900473ffffffffffffffffffffffffffffffffffffffff1673ffffffffffffffffffffffffffffffffffffffff163373ffffffffffffffffffffffffffffffffffffffff16145b806104f15750600460009054906101000a900473ffffffffffffffffffffffffffffffffffffffff1673ffffffffffffffffffffffffffffffffffffffff163373ffffffffffffffffffffffffffffffffffffffff16145b6104fa57600080fd5b600160009054906101000a900473ffffffffffffffffffffffffffffffffffffffff16600260009054906101000a900473ffffffffffffffffffffffffffffffffffffffff16600360009054906101000a900473ffffffffffffffffffffffffffffffffffffffff16600554600754600860009054906101000a900460ff16600860019054906101000a900460ff167f00000000000000000000000000000000000000000000000000000000000000007f00000000000000000000000000000000000000000000000000000000000000006009600f6010826040518060c0016040529081600082015481526020016001820154815260200160028201548152602001600382015481526020016004820154815260200160058201548152505092508180548060200260200160405190810160405280929190818152602001828054801561066657602002820191906000526020600020905b815481526020019060010190808311610652575b5050505050915080805480602002602001604051908101604052809291908181526020016000905b828210156106fc57838290600052602060002090600602016040518060c001604052908160008201548152602001600182015481526020016002820154815260200160038201548152602001600482015481526020016005820154815250508152602001906001019061068e565b5050505090509b509b509b509b509b509b509b509b509b509b509b509b50909192939495969798999a9b565b600860009054906101000a900460ff1681565b600260009054906101000a900473ffffffffffffffffffffffffffffffffffffffff1673ffffffffffffffffffffffffffffffffffffffff163373ffffffffffffffffffffffffffffffffffffffff16146107cb576040517f08c379a00000000000000000000000000000000000000000000000000000000081526004016107c290611b64565b60405180910390fd5b6000600260009054906101000a900473ffffffffffffffffffffffffffffffffffffffff1673ffffffffffffffffffffffffffffffffffffffff164760405161081390611bb5565b60006040518083038185875af1925050503d8060008114610850576040519150601f19603f3d011682016040523d82523d6000602084013e610855565b606091505b5050905080610899576040517f08c379a000000000000000000000000000000000000000000000000000000000815260040161089090611c16565b60405180910390fd5b6001600860006101000a81548160ff02191690831515021790555050565b6000600160009054906101000a900473ffffffffffffffffffffffffffffffffffffffff1673ffffffffffffffffffffffffffffffffffffffff163373ffffffffffffffffffffffffffffffffffffffff1614806109625750600260009054906101000a900473ffffffffffffffffffffffffffffffffffffffff1673ffffffffffffffffffffffffffffffffffffffff163373ffffffffffffffffffffffffffffffffffffffff16145b806109ba5750600460009054906101000a900473ffffffffffffffffffffffffffffffffffffffff1673ffffffffffffffffffffffffffffffffffffffff163373ffffffffffffffffffffffffffffffffffffffff16145b6109c357600080fd5b600260009054906101000a900473ffffffffffffffffffffffffffffffffffffffff16905090565b600260009054906101000a900473ffffffffffffffffffffffffffffffffffffffff1673ffffffffffffffffffffffffffffffffffffffff163373ffffffffffffffffffffffffffffffffffffffff1614610a7b576040517f08c379a0000000000000000000000000000000000000000000000000000000008152600401610a7290611ca8565b60405180910390fd5b80600260006101000a81548173ffffffffffffffffffffffffffffffffffffffff021916908373ffffffffffffffffffffffffffffffffffffffff16021790555050565b6000806000806060600080600360009054906101000a900473ffffffffffffffffffffffffffffffffffffffff1673ffffffffffffffffffffffffffffffffffffffff163373ffffffffffffffffffffffffffffffffffffffff16148015610b335750600860019054906101000a900460ff165b610b3c57600080fd5b600160009054906101000a900473ffffffffffffffffffffffffffffffffffffffff16600260009054906101000a900473ffffffffffffffffffffffffffffffffffffffff16304760107f000000000000000000000000000000000000000000000000000000000000000060075482805480602002602001604051908101604052809291908181526020016000905b82821015610c3957838290600052602060002090600602016040518060c0016040529081600082015481526020016001820154815260200160028201548152602001600382015481526020016004820154815260200160058201548152505081526020019060010190610bcb565b505050509250965096509650965096509650965090919293949596565b6000806000806000806000610c6961110c565b925092509250600083905060006305f5e1008a83610c879190611cf7565b610c919190611d80565b905080828585985098509850985050505050509193509193565b7f000000000000000000000000000000000000000000000000000000000000000060055442610cda9190611db1565b118015610cea5750600754600654105b8015610d035750600860009054906101000a900460ff16155b15610e5657426005819055506000610d3a600f60065481548110610d2a57610d29611de5565b5b90600052602060002001546111bd565b9050610d4581611247565b60075460065410610e20576000600360009054906101000a900473ffffffffffffffffffffffffffffffffffffffff1673ffffffffffffffffffffffffffffffffffffffff1647604051610d9890611bb5565b60006040518083038185875af1925050503d8060008114610dd5576040519150601f19603f3d011682016040523d82523d6000602084013e610dda565b606091505b5050905080610e1e576040517f08c379a0000000000000000000000000000000000000000000000000000000008152600401610e1590611e60565b60405180910390fd5b505b600754600654101580610e335750600047145b15610e54576001600860006101000a81548160ff0219169083151502179055505b505b565b60007f000000000000000000000000000000000000000000000000000000000000000060055442610e899190611db1565b118015610e995750600754600654105b8015610eb25750600860009054906101000a900460ff16155b905090565b6000600160009054906101000a900473ffffffffffffffffffffffffffffffffffffffff1673ffffffffffffffffffffffffffffffffffffffff163373ffffffffffffffffffffffffffffffffffffffff161480610f625750600260009054906101000a900473ffffffffffffffffffffffffffffffffffffffff1673ffffffffffffffffffffffffffffffffffffffff163373ffffffffffffffffffffffffffffffffffffffff16145b80610fba5750600460009054906101000a900473ffffffffffffffffffffffffffffffffffffffff1673ffffffffffffffffffffffffffffffffffffffff163373ffffffffffffffffffffffffffffffffffffffff16145b610fc357600080fd5b600360009054906101000a900473ffffffffffffffffffffffffffffffffffffffff16905090565b6000600160009054906101000a900473ffffffffffffffffffffffffffffffffffffffff1673ffffffffffffffffffffffffffffffffffffffff163373ffffffffffffffffffffffffffffffffffffffff1614806110965750600260009054906101000a900473ffffffffffffffffffffffffffffffffffffffff1673ffffffffffffffffffffffffffffffffffffffff163373ffffffffffffffffffffffffffffffffffffffff16145b806110ee5750600460009054906101000a900473ffffffffffffffffffffffffffffffffffffffff1673ffffffffffffffffffffffffffffffffffffffff163373ffffffffffffffffffffffffffffffffffffffff16145b6110f757600080fd5b600860019054906101000a900460ff16905090565b60008060008060008060008054906101000a900473ffffffffffffffffffffffffffffffffffffffff1673ffffffffffffffffffffffffffffffffffffffff1663feaf968c6040518163ffffffff1660e01b815260040160a060405180830381865afa158015611180573d6000803e3d6000fd5b505050506040513d601f19601f820116820180604052508101906111a49190611ef7565b5093505092509250818382955095509550505050909192565b6111c56114ec565b600082905060008060006111d761110c565b9250925092506000836305f5e100866111f09190611cf7565b6111fa9190611d80565b905060006040518060c001604052808381526020014281526020018681526020018569ffffffffffffffffffff168152602001848152602001898152509050809650505050505050919050565b4781600001511115611391576000600160009054906101000a900473ffffffffffffffffffffffffffffffffffffffff1673ffffffffffffffffffffffffffffffffffffffff164760405161129b90611bb5565b60006040518083038185875af1925050503d80600081146112d8576040519150601f19603f3d011682016040523d82523d6000602084013e6112dd565b606091505b5050905080611321576040517f08c379a000000000000000000000000000000000000000000000000000000000815260040161131890611fbe565b60405180910390fd5b6010829080600181540180825580915050600190039060005260206000209060060201600090919091909150600082015181600001556020820151816001015560408201518160020155606082015181600301556080820151816004015560a082015181600501555050506114cf565b6000600160009054906101000a900473ffffffffffffffffffffffffffffffffffffffff1673ffffffffffffffffffffffffffffffffffffffff1682600001516040516113dd90611bb5565b60006040518083038185875af1925050503d806000811461141a576040519150601f19603f3d011682016040523d82523d6000602084013e61141f565b606091505b5050905080611463576040517f08c379a000000000000000000000000000000000000000000000000000000000815260040161145a90611fbe565b60405180910390fd5b6010829080600181540180825580915050600190039060005260206000209060060201600090919091909150600082015181600001556020820151816001015560408201518160020155606082015181600301556080820151816004015560a082015181600501555050505b6001600660008282546114e29190611fde565b9250508190555050565b6040518060c001604052806000815260200160008152602001600081526020016000815260200160008152602001600081525090565b600073ffffffffffffffffffffffffffffffffffffffff82169050919050565b600061154d82611522565b9050919050565b61155d81611542565b82525050565b60006020820190506115786000830184611554565b92915050565b6000819050919050565b6115918161157e565b82525050565b60008115159050919050565b6115ac81611597565b82525050565b6115bb8161157e565b82525050565b60c0820160008201516115d760008501826115b2565b5060208201516115ea60208501826115b2565b5060408201516115fd60408501826115b2565b50606082015161161060608501826115b2565b50608082015161162360808501826115b2565b5060a082015161163660a08501826115b2565b50505050565b600081519050919050565b600082825260208201905092915050565b6000819050602082019050919050565b600061167483836115b2565b60208301905092915050565b6000602082019050919050565b60006116988261163c565b6116a28185611647565b93506116ad83611658565b8060005b838110156116de5781516116c58882611668565b97506116d083611680565b9250506001810190506116b1565b5085935050505092915050565b600081519050919050565b600082825260208201905092915050565b6000819050602082019050919050565b60c08201600082015161172d60008501826115b2565b50602082015161174060208501826115b2565b50604082015161175360408501826115b2565b50606082015161176660608501826115b2565b50608082015161177960808501826115b2565b5060a082015161178c60a08501826115b2565b50505050565b600061179e8383611717565b60c08301905092915050565b6000602082019050919050565b60006117c2826116eb565b6117cc81856116f6565b93506117d783611707565b8060005b838110156118085781516117ef8882611792565b97506117fa836117aa565b9250506001810190506117db565b5085935050505092915050565b60006102208201905061182b600083018f611554565b611838602083018e611554565b611845604083018d611554565b611852606083018c611588565b61185f608083018b611588565b61186c60a083018a6115a3565b61187960c08301896115a3565b61188660e0830188611588565b611894610100830187611588565b6118a26101208301866115c1565b8181036101e08301526118b5818561168d565b90508181036102008301526118ca81846117b7565b90509d9c50505050505050505050505050565b60006020820190506118f260008301846115a3565b92915050565b600080fd5b61190681611542565b811461191157600080fd5b50565b600081359050611923816118fd565b92915050565b60006020828403121561193f5761193e6118f8565b5b600061194d84828501611914565b91505092915050565b600060e08201905061196b600083018a611554565b6119786020830189611554565b6119856040830188611554565b6119926060830187611588565b81810360808301526119a481866117b7565b90506119b360a0830185611588565b6119c060c0830184611588565b98975050505050505050565b6119d58161157e565b81146119e057600080fd5b50565b6000813590506119f2816119cc565b92915050565b600060208284031215611a0e57611a0d6118f8565b5b6000611a1c848285016119e3565b91505092915050565b600069ffffffffffffffffffff82169050919050565b611a4481611a25565b82525050565b6000608082019050611a5f6000830187611588565b611a6c6020830186611588565b611a796040830185611a3b565b611a866060830184611588565b95945050505050565b6000606082019050611aa46000830186611588565b611ab16020830185611a3b565b611abe6040830184611588565b949350505050565b600060c082019050611adb60008301846115c1565b92915050565b600082825260208201905092915050565b7f4f6e6c792074686520547275737465652063616e206c6971756964617465207460008201527f6865207472757374000000000000000000000000000000000000000000000000602082015250565b6000611b4e602883611ae1565b9150611b5982611af2565b604082019050919050565b60006020820190508181036000830152611b7d81611b41565b9050919050565b600081905092915050565b50565b6000611b9f600083611b84565b9150611baa82611b8f565b600082019050919050565b6000611bc082611b92565b9150819050919050565b7f4661696c656420746f206c697175696461746500000000000000000000000000600082015250565b6000611c00601383611ae1565b9150611c0b82611bca565b602082019050919050565b60006020820190508181036000830152611c2f81611bf3565b9050919050565b7f4f6e6c7920746865205472757374656520697320616c6c6f77656420746f206360008201527f68616e6765207468652054727573746565206164647265737300000000000000602082015250565b6000611c92603983611ae1565b9150611c9d82611c36565b604082019050919050565b60006020820190508181036000830152611cc181611c85565b9050919050565b7f4e487b7100000000000000000000000000000000000000000000000000000000600052601160045260246000fd5b6000611d028261157e565b9150611d0d8361157e565b9250817fffffffffffffffffffffffffffffffffffffffffffffffffffffffffffffffff0483118215151615611d4657611d45611cc8565b5b828202905092915050565b7f4e487b7100000000000000000000000000000000000000000000000000000000600052601260045260246000fd5b6000611d8b8261157e565b9150611d968361157e565b925082611da657611da5611d51565b5b828204905092915050565b6000611dbc8261157e565b9150611dc78361157e565b925082821015611dda57611dd9611cc8565b5b828203905092915050565b7f4e487b7100000000000000000000000000000000000000000000000000000000600052603260045260246000fd5b7f4661696c656420746f207061796f75742062656e656669636961727900000000600082015250565b6000611e4a601c83611ae1565b9150611e5582611e14565b602082019050919050565b60006020820190508181036000830152611e7981611e3d565b9050919050565b611e8981611a25565b8114611e9457600080fd5b50565b600081519050611ea681611e80565b92915050565b6000819050919050565b611ebf81611eac565b8114611eca57600080fd5b50565b600081519050611edc81611eb6565b92915050565b600081519050611ef1816119cc565b92915050565b600080600080600060a08688031215611f1357611f126118f8565b5b6000611f2188828901611e97565b9550506020611f3288828901611ecd565b9450506040611f4388828901611ee2565b9350506060611f5488828901611ee2565b9250506080611f6588828901611e97565b9150509295509295909350565b7f4661696c656420746f2073656e64204574686572000000000000000000000000600082015250565b6000611fa8601483611ae1565b9150611fb382611f72565b602082019050919050565b60006020820190508181036000830152611fd781611f9b565b9050919050565b6000611fe98261157e565b9150611ff48361157e565b9250827fffffffffffffffffffffffffffffffffffffffffffffffffffffffffffffffff0382111561202957612028611cc8565b5b82820190509291505056fea2646970667358221220819634ce3bc6c80414c471ce5375c94e5716deb45f415c9616a27a2f39b5461e64736f6c634300080b0033a264697066735822122019470b157d0cf5f159149f1f74461615b9c07d066f1379c6bf7bb547fc532aef64736f6c634300080b00334279207369676e696e672074686520736d61727420636f6e74726163742c20796f752061636b6e6f776c65646765207468617420757365206f662061206469676974616c206d656368616e69736d20666f7220666f726d696e672061207472757374206d6179206e6f74206265207065726d69737369626c6520756e64657220796f75722073746174652773206a7572697364696374696f6e2c20686173206e6f74206265656e20617070726f7665642062792074686520496e7465726e616c20526576656e756520536572766963652c20616e6420686173206e6f74206265656e207265636f676e697a656420696e20616e7920636f757274206f66206c61772e20596f7520726570726573656e74207468617420796f75206861766520736f7567687420617070726f7072696174652066696e616e6369616c20616e64206c6567616c206164766963652c20616e64207468617420796f7520617265206e6f742072656c69616e74206f6e20616e7920726570726573656e746174696f6e73206f722073756767657374696f6e73206f6620526f626f74727573742e78797a2e20596f752068657265627920776169766520616e7920726967687420666f7220796f757273656c662c20796f75722068656972732c20616e642061737369676e7320746f20686f6c6420526f626f74727573742e78797a206c6961626c6520666f722028692920616e7920696e6469726563742c20696e636964656e74616c2c207370656369616c2c20636f6e73657175656e7469616c206f722070756e69746976652064616d616765732c206f722066696e616e6369616c206c6f73732c207768657468657220696e637572726564206469726563746c79206f7220696e6469726563746c79206f7220726573756c74696e672066726f6d20796f75722061636365737320746f206f7220757365206f7220696e6162696c69747920746f20616363657373206f722075736520526f626f74727573742e78797a3b206f72202869692920616e7920636f6e64756374206f6620612074686972642070617274792c20696e636c7564696e6720616e7920756e617574686f72697a6564206163636573732c207573652c206f7220616c7465726174696f6e206f6620796f7572207472616e736d697373696f6e732e20596f75206167726565207468617420616e7920646973707574652061726973696e67206f7574206f66206f722072656c6174696e6720746f2074686520757365206f6620526f626f74727573742e78797a2c20696e636c7564696e6720746865207465726d696e6174696f6e206f66207468652073636f7065206f72206170706c69636162696c697479206f6620746869732061677265656d656e7420746f206172626974726174652c2077696c6c2062652064657465726d696e6564206279206172626974726174696f6e20696e20746865207374617465206f66205465786173206f7220616e6f74686572206d757475616c6c79206167726565642075706f6e206c6f636174696f6e2c206265666f7265206f6e65206e65757472616c2061726269747261746f722e",
  "linkReferences": {},
  "deployedLinkReferences": {}
}