{
  "_format": "hh-sol-artifact-1",
  "contractName": "RoboTrust",
  "sourceName": "contracts/RoboTrust.sol",
  "abi": [
    {
      "inputs": [
        {
          "internalType": "address",
          "name": "_owner",
          "type": "address"
        },
        {
          "internalType": "address",
          "name": "_trustee",
          "type": "address"
        },
        {
          "internalType": "address",
          "name": "_beneficiary",
          "type": "address"
        },
        {
          "internalType": "uint256",
          "name": "_period",
          "type": "uint256"
        },
        {
          "internalType": "uint256",
          "name": "_numYears",
          "type": "uint256"
        },
        {
          "internalType": "uint256[]",
          "name": "_paymentAmounts",
          "type": "uint256[]"
        },
        {
          "internalType": "uint256",
          "name": "_annuityPV",
          "type": "uint256"
        },
        {
          "internalType": "address",
          "name": "_priceFeedAddress",
          "type": "address"
        },
        {
          "internalType": "bool",
          "name": "_showAccounting",
          "type": "bool"
        }
      ],
      "stateMutability": "payable",
      "type": "constructor"
    },
    {
      "inputs": [
        {
          "internalType": "address",
          "name": "_newTrustee",
          "type": "address"
        }
      ],
      "name": "changeTrustee",
      "outputs": [],
      "stateMutability": "nonpayable",
      "type": "function"
    },
    {
      "inputs": [],
      "name": "checkUpkeep",
      "outputs": [
        {
          "internalType": "bool",
          "name": "upkeepNeeded",
          "type": "bool"
        }
      ],
      "stateMutability": "view",
      "type": "function"
    },
    {
      "inputs": [],
      "name": "getBeneficiaryAddress",
      "outputs": [
        {
          "internalType": "address",
          "name": "",
          "type": "address"
        }
      ],
      "stateMutability": "view",
      "type": "function"
    },
    {
      "inputs": [],
      "name": "getLastEthPriceUSD",
      "outputs": [
        {
          "internalType": "uint256",
          "name": "",
          "type": "uint256"
        },
        {
          "internalType": "uint80",
          "name": "",
          "type": "uint80"
        },
        {
          "internalType": "uint256",
          "name": "",
          "type": "uint256"
        }
      ],
      "stateMutability": "view",
      "type": "function"
    },
    {
      "inputs": [],
      "name": "getOwnerAddress",
      "outputs": [
        {
          "internalType": "address",
          "name": "",
          "type": "address"
        }
      ],
      "stateMutability": "view",
      "type": "function"
    },
    {
      "inputs": [
        {
          "internalType": "uint256",
          "name": "_usdAmountDegree18",
          "type": "uint256"
        }
      ],
      "name": "getPaymentEthAmount",
      "outputs": [
        {
          "components": [
            {
              "internalType": "uint256",
              "name": "ethPaid",
              "type": "uint256"
            },
            {
              "internalType": "uint256",
              "name": "paymentTimestamp",
              "type": "uint256"
            },
            {
              "internalType": "uint256",
              "name": "ethPrice",
              "type": "uint256"
            },
            {
              "internalType": "uint256",
              "name": "priceRound",
              "type": "uint256"
            },
            {
              "internalType": "uint256",
              "name": "priceTimestamp",
              "type": "uint256"
            },
            {
              "internalType": "uint256",
              "name": "usdPaymentAmount",
              "type": "uint256"
            }
          ],
          "internalType": "struct FinancialMathHelper.Payment",
          "name": "",
          "type": "tuple"
        }
      ],
      "stateMutability": "view",
      "type": "function"
    },
    {
      "inputs": [],
      "name": "getShowBeneficiaryAccounting",
      "outputs": [
        {
          "internalType": "bool",
          "name": "",
          "type": "bool"
        }
      ],
      "stateMutability": "view",
      "type": "function"
    },
    {
      "inputs": [],
      "name": "getTrustData",
      "outputs": [
        {
          "internalType": "address",
          "name": "",
          "type": "address"
        },
        {
          "internalType": "address",
          "name": "",
          "type": "address"
        },
        {
          "internalType": "address",
          "name": "",
          "type": "address"
        },
        {
          "internalType": "uint256",
          "name": "",
          "type": "uint256"
        },
        {
          "internalType": "uint256",
          "name": "",
          "type": "uint256"
        },
        {
          "internalType": "bool",
          "name": "",
          "type": "bool"
        },
        {
          "internalType": "bool",
          "name": "",
          "type": "bool"
        },
        {
          "internalType": "uint256",
          "name": "",
          "type": "uint256"
        },
        {
          "internalType": "uint256",
          "name": "",
          "type": "uint256"
        },
        {
          "components": [
            {
              "internalType": "uint256",
              "name": "ethPaid",
              "type": "uint256"
            },
            {
              "internalType": "uint256",
              "name": "paymentTimestamp",
              "type": "uint256"
            },
            {
              "internalType": "uint256",
              "name": "ethPrice",
              "type": "uint256"
            },
            {
              "internalType": "uint256",
              "name": "priceRound",
              "type": "uint256"
            },
            {
              "internalType": "uint256",
              "name": "priceTimestamp",
              "type": "uint256"
            },
            {
              "internalType": "uint256",
              "name": "usdPaymentAmount",
              "type": "uint256"
            }
          ],
          "internalType": "struct FinancialMathHelper.Payment",
          "name": "",
          "type": "tuple"
        },
        {
          "internalType": "uint256[]",
          "name": "",
          "type": "uint256[]"
        },
        {
          "components": [
            {
              "internalType": "uint256",
              "name": "ethPaid",
              "type": "uint256"
            },
            {
              "internalType": "uint256",
              "name": "paymentTimestamp",
              "type": "uint256"
            },
            {
              "internalType": "uint256",
              "name": "ethPrice",
              "type": "uint256"
            },
            {
              "internalType": "uint256",
              "name": "priceRound",
              "type": "uint256"
            },
            {
              "internalType": "uint256",
              "name": "priceTimestamp",
              "type": "uint256"
            },
            {
              "internalType": "uint256",
              "name": "usdPaymentAmount",
              "type": "uint256"
            }
          ],
          "internalType": "struct FinancialMathHelper.Payment[]",
          "name": "",
          "type": "tuple[]"
        }
      ],
      "stateMutability": "view",
      "type": "function"
    },
    {
      "inputs": [],
      "name": "getTrustDataBeneficiary",
      "outputs": [
        {
          "internalType": "address",
          "name": "",
          "type": "address"
        },
        {
          "internalType": "address",
          "name": "",
          "type": "address"
        },
        {
          "internalType": "address",
          "name": "",
          "type": "address"
        },
        {
          "internalType": "uint256",
          "name": "",
          "type": "uint256"
        },
        {
          "components": [
            {
              "internalType": "uint256",
              "name": "ethPaid",
              "type": "uint256"
            },
            {
              "internalType": "uint256",
              "name": "paymentTimestamp",
              "type": "uint256"
            },
            {
              "internalType": "uint256",
              "name": "ethPrice",
              "type": "uint256"
            },
            {
              "internalType": "uint256",
              "name": "priceRound",
              "type": "uint256"
            },
            {
              "internalType": "uint256",
              "name": "priceTimestamp",
              "type": "uint256"
            },
            {
              "internalType": "uint256",
              "name": "usdPaymentAmount",
              "type": "uint256"
            }
          ],
          "internalType": "struct FinancialMathHelper.Payment[]",
          "name": "",
          "type": "tuple[]"
        },
        {
          "internalType": "uint256",
          "name": "",
          "type": "uint256"
        },
        {
          "internalType": "uint256",
          "name": "",
          "type": "uint256"
        }
      ],
      "stateMutability": "view",
      "type": "function"
    },
    {
      "inputs": [],
      "name": "getTrusteeAddress",
      "outputs": [
        {
          "internalType": "address",
          "name": "",
          "type": "address"
        }
      ],
      "stateMutability": "view",
      "type": "function"
    },
    {
      "inputs": [
        {
          "internalType": "uint256",
          "name": "_ethAmountWei",
          "type": "uint256"
        }
      ],
      "name": "getUSDValue",
      "outputs": [
        {
          "internalType": "uint256",
          "name": "",
          "type": "uint256"
        },
        {
          "internalType": "uint256",
          "name": "",
          "type": "uint256"
        },
        {
          "internalType": "uint80",
          "name": "",
          "type": "uint80"
        },
        {
          "internalType": "uint256",
          "name": "",
          "type": "uint256"
        }
      ],
      "stateMutability": "view",
      "type": "function"
    },
    {
      "inputs": [],
      "name": "liquidate",
      "outputs": [],
      "stateMutability": "nonpayable",
      "type": "function"
    },
    {
      "inputs": [],
      "name": "performUpkeep",
      "outputs": [],
      "stateMutability": "nonpayable",
      "type": "function"
    },
    {
      "inputs": [],
      "name": "terminated",
      "outputs": [
        {
          "internalType": "bool",
          "name": "",
          "type": "bool"
        }
      ],
      "stateMutability": "view",
      "type": "function"
    }
  ],
  "bytecode": "0x61010060405260405162002cdb38038062002cdb83398181016040528101906200002a9190620007b5565b81806000806101000a81548173ffffffffffffffffffffffffffffffffffffffff021916908373ffffffffffffffffffffffffffffffffffffffff160217905550508673ffffffffffffffffffffffffffffffffffffffff168973ffffffffffffffffffffffffffffffffffffffff161415620000de576040517f08c379a0000000000000000000000000000000000000000000000000000000008152600401620000d5906200093a565b60405180910390fd5b600360009054906101000a900473ffffffffffffffffffffffffffffffffffffffff1673ffffffffffffffffffffffffffffffffffffffff168873ffffffffffffffffffffffffffffffffffffffff16141562000172576040517f08c379a00000000000000000000000000000000000000000000000000000000081526004016200016990620009d2565b60405180910390fd5b33600460006101000a81548173ffffffffffffffffffffffffffffffffffffffff021916908373ffffffffffffffffffffffffffffffffffffffff16021790555088600160006101000a81548173ffffffffffffffffffffffffffffffffffffffff021916908373ffffffffffffffffffffffffffffffffffffffff16021790555087600260006101000a81548173ffffffffffffffffffffffffffffffffffffffff021916908373ffffffffffffffffffffffffffffffffffffffff16021790555086600360006101000a81548173ffffffffffffffffffffffffffffffffffffffff021916908373ffffffffffffffffffffffffffffffffffffffff1602179055506000600860006101000a81548160ff02191690831515021790555080600860016101000a81548160ff0219169083151502179055508560808181525050846007819055504260058190555083600f9080519060200190620002d9929190620004de565b50600080600080620002f134620003c960201b60201c565b935069ffffffffffffffffffff169350935093506040518060c00160405280348152602001428152602001848152602001838152602001828152602001858152506009600082015181600001556020820151816001015560408201518160020155606082015181600301556080820151816004015560a082015181600501559050508660c0818152505060008460c0511115620003925760009050620003a5565b60c05185620003a2919062000a23565b90505b8060a081815250504260e08181525050505050505050505050505050505062000c30565b6000806000806000806000620003e46200042a60201b60201c565b925092509250600083905060006305f5e1008a8362000404919062000a5e565b62000410919062000aee565b905080828585985098509850985050505050509193509193565b60008060008060008060008054906101000a900473ffffffffffffffffffffffffffffffffffffffff1673ffffffffffffffffffffffffffffffffffffffff1663feaf968c6040518163ffffffff1660e01b815260040160a060405180830381865afa1580156200049f573d6000803e3d6000fd5b505050506040513d601f19601f82011682018060405250810190620004c5919062000ba8565b5093505092509250818382955095509550505050909192565b8280548282559060005260206000209081019282156200051d579160200282015b828111156200051c578251825591602001919060010190620004ff565b5b5090506200052c919062000530565b5090565b5b808211156200054b57600081600090555060010162000531565b5090565b6000604051905090565b600080fd5b600080fd5b600073ffffffffffffffffffffffffffffffffffffffff82169050919050565b6000620005908262000563565b9050919050565b620005a28162000583565b8114620005ae57600080fd5b50565b600081519050620005c28162000597565b92915050565b6000819050919050565b620005dd81620005c8565b8114620005e957600080fd5b50565b600081519050620005fd81620005d2565b92915050565b600080fd5b6000601f19601f8301169050919050565b7f4e487b7100000000000000000000000000000000000000000000000000000000600052604160045260246000fd5b620006538262000608565b810181811067ffffffffffffffff8211171562000675576200067462000619565b5b80604052505050565b60006200068a6200054f565b905062000698828262000648565b919050565b600067ffffffffffffffff821115620006bb57620006ba62000619565b5b602082029050602081019050919050565b600080fd5b6000620006e8620006e2846200069d565b6200067e565b905080838252602082019050602084028301858111156200070e576200070d620006cc565b5b835b818110156200073b5780620007268882620005ec565b84526020840193505060208101905062000710565b5050509392505050565b600082601f8301126200075d576200075c62000603565b5b81516200076f848260208601620006d1565b91505092915050565b60008115159050919050565b6200078f8162000778565b81146200079b57600080fd5b50565b600081519050620007af8162000784565b92915050565b60008060008060008060008060006101208a8c031215620007db57620007da62000559565b5b6000620007eb8c828d01620005b1565b9950506020620007fe8c828d01620005b1565b9850506040620008118c828d01620005b1565b9750506060620008248c828d01620005ec565b9650506080620008378c828d01620005ec565b95505060a08a015167ffffffffffffffff8111156200085b576200085a6200055e565b5b620008698c828d0162000745565b94505060c06200087c8c828d01620005ec565b93505060e06200088f8c828d01620005b1565b925050610100620008a38c828d016200079e565b9150509295985092959850929598565b600082825260208201905092915050565b7f4772616e746f722063616e6e6f7420616c736f206265207468652062656e656660008201527f6963696172790000000000000000000000000000000000000000000000000000602082015250565b600062000922602683620008b3565b91506200092f82620008c4565b604082019050919050565b60006020820190508181036000830152620009558162000913565b9050919050565b7f42656e65666963696172792063616e6e6f7420616c736f20626520746865205460008201527f7275737465650000000000000000000000000000000000000000000000000000602082015250565b6000620009ba602683620008b3565b9150620009c7826200095c565b604082019050919050565b60006020820190508181036000830152620009ed81620009ab565b9050919050565b7f4e487b7100000000000000000000000000000000000000000000000000000000600052601160045260246000fd5b600062000a3082620005c8565b915062000a3d83620005c8565b92508282101562000a535762000a52620009f4565b5b828203905092915050565b600062000a6b82620005c8565b915062000a7883620005c8565b9250817fffffffffffffffffffffffffffffffffffffffffffffffffffffffffffffffff048311821515161562000ab45762000ab3620009f4565b5b828202905092915050565b7f4e487b7100000000000000000000000000000000000000000000000000000000600052601260045260246000fd5b600062000afb82620005c8565b915062000b0883620005c8565b92508262000b1b5762000b1a62000abf565b5b828204905092915050565b600069ffffffffffffffffffff82169050919050565b62000b478162000b26565b811462000b5357600080fd5b50565b60008151905062000b678162000b3c565b92915050565b6000819050919050565b62000b828162000b6d565b811462000b8e57600080fd5b50565b60008151905062000ba28162000b77565b92915050565b600080600080600060a0868803121562000bc75762000bc662000559565b5b600062000bd78882890162000b56565b955050602062000bea8882890162000b91565b945050604062000bfd88828901620005ec565b935050606062000c1088828901620005ec565b925050608062000c238882890162000b56565b9150509295509295909350565b60805160a05160c05160e05161206a62000c716000396000610b88015260006105ac0152600061058b015260008181610cad0152610e5c015261206a6000f3fe608060405234801561001057600080fd5b50600436106100ea5760003560e01c8063517d5e4e1161008c578063d1eff89511610066578063d1eff89514610217578063de9d390a14610235578063fbf9096a14610253578063fcd2239614610273576100ea565b8063517d5e4e146101bc5780636e4d243a146101ef578063a13abdad146101f9576100ea565b806328a07025116100c857806328a070251461015457806328a6b1d51461015e578063324716d61461017c578063393c59e214610198576100ea565b80630c4f65bd146100ef578063116692f91461010d578063194307bf14610136575b600080fd5b6100f76102a3565b6040516101049190611563565b60405180910390f35b6101156103d7565b60405161012d9c9b9a99989796959493929190611815565b60405180910390f35b61013e610728565b60405161014b91906118dd565b60405180910390f35b61015c61073b565b005b6101666108b7565b6040516101739190611563565b60405180910390f35b61019660048036038101906101919190611929565b6109eb565b005b6101a0610abf565b6040516101b39796959493929190611956565b60405180910390f35b6101d660048036038101906101d191906119f8565b610c56565b6040516101e69493929190611a4a565b60405180910390f35b6101f7610cab565b005b610201610e58565b60405161020e91906118dd565b60405180910390f35b61021f610eb7565b60405161022c9190611563565b60405180910390f35b61023d610feb565b60405161024a91906118dd565b60405180910390f35b61025b61110c565b60405161026a93929190611a8f565b60405180910390f35b61028d600480360381019061028891906119f8565b6111bd565b60405161029a9190611ac6565b60405180910390f35b6000600160009054906101000a900473ffffffffffffffffffffffffffffffffffffffff1673ffffffffffffffffffffffffffffffffffffffff163373ffffffffffffffffffffffffffffffffffffffff16148061034e5750600260009054906101000a900473ffffffffffffffffffffffffffffffffffffffff1673ffffffffffffffffffffffffffffffffffffffff163373ffffffffffffffffffffffffffffffffffffffff16145b806103a65750600460009054906101000a900473ffffffffffffffffffffffffffffffffffffffff1673ffffffffffffffffffffffffffffffffffffffff163373ffffffffffffffffffffffffffffffffffffffff16145b6103af57600080fd5b600160009054906101000a900473ffffffffffffffffffffffffffffffffffffffff16905090565b60008060008060008060008060006103ed6114ec565b606080600160009054906101000a900473ffffffffffffffffffffffffffffffffffffffff1673ffffffffffffffffffffffffffffffffffffffff163373ffffffffffffffffffffffffffffffffffffffff1614806104995750600260009054906101000a900473ffffffffffffffffffffffffffffffffffffffff1673ffffffffffffffffffffffffffffffffffffffff163373ffffffffffffffffffffffffffffffffffffffff16145b806104f15750600460009054906101000a900473ffffffffffffffffffffffffffffffffffffffff1673ffffffffffffffffffffffffffffffffffffffff163373ffffffffffffffffffffffffffffffffffffffff16145b6104fa57600080fd5b600160009054906101000a900473ffffffffffffffffffffffffffffffffffffffff16600260009054906101000a900473ffffffffffffffffffffffffffffffffffffffff16600360009054906101000a900473ffffffffffffffffffffffffffffffffffffffff16600554600754600860009054906101000a900460ff16600860019054906101000a900460ff167f00000000000000000000000000000000000000000000000000000000000000007f00000000000000000000000000000000000000000000000000000000000000006009600f6010826040518060c0016040529081600082015481526020016001820154815260200160028201548152602001600382015481526020016004820154815260200160058201548152505092508180548060200260200160405190810160405280929190818152602001828054801561066657602002820191906000526020600020905b815481526020019060010190808311610652575b5050505050915080805480602002602001604051908101604052809291908181526020016000905b828210156106fc57838290600052602060002090600602016040518060c001604052908160008201548152602001600182015481526020016002820154815260200160038201548152602001600482015481526020016005820154815250508152602001906001019061068e565b5050505090509b509b509b509b509b509b509b509b509b509b509b509b50909192939495969798999a9b565b600860009054906101000a900460ff1681565b600260009054906101000a900473ffffffffffffffffffffffffffffffffffffffff1673ffffffffffffffffffffffffffffffffffffffff163373ffffffffffffffffffffffffffffffffffffffff16146107cb576040517f08c379a00000000000000000000000000000000000000000000000000000000081526004016107c290611b64565b60405180910390fd5b6000600260009054906101000a900473ffffffffffffffffffffffffffffffffffffffff1673ffffffffffffffffffffffffffffffffffffffff164760405161081390611bb5565b60006040518083038185875af1925050503d8060008114610850576040519150601f19603f3d011682016040523d82523d6000602084013e610855565b606091505b5050905080610899576040517f08c379a000000000000000000000000000000000000000000000000000000000815260040161089090611c16565b60405180910390fd5b6001600860006101000a81548160ff02191690831515021790555050565b6000600160009054906101000a900473ffffffffffffffffffffffffffffffffffffffff1673ffffffffffffffffffffffffffffffffffffffff163373ffffffffffffffffffffffffffffffffffffffff1614806109625750600260009054906101000a900473ffffffffffffffffffffffffffffffffffffffff1673ffffffffffffffffffffffffffffffffffffffff163373ffffffffffffffffffffffffffffffffffffffff16145b806109ba5750600460009054906101000a900473ffffffffffffffffffffffffffffffffffffffff1673ffffffffffffffffffffffffffffffffffffffff163373ffffffffffffffffffffffffffffffffffffffff16145b6109c357600080fd5b600260009054906101000a900473ffffffffffffffffffffffffffffffffffffffff16905090565b600260009054906101000a900473ffffffffffffffffffffffffffffffffffffffff1673ffffffffffffffffffffffffffffffffffffffff163373ffffffffffffffffffffffffffffffffffffffff1614610a7b576040517f08c379a0000000000000000000000000000000000000000000000000000000008152600401610a7290611ca8565b60405180910390fd5b80600260006101000a81548173ffffffffffffffffffffffffffffffffffffffff021916908373ffffffffffffffffffffffffffffffffffffffff16021790555050565b6000806000806060600080600360009054906101000a900473ffffffffffffffffffffffffffffffffffffffff1673ffffffffffffffffffffffffffffffffffffffff163373ffffffffffffffffffffffffffffffffffffffff16148015610b335750600860019054906101000a900460ff165b610b3c57600080fd5b600160009054906101000a900473ffffffffffffffffffffffffffffffffffffffff16600260009054906101000a900473ffffffffffffffffffffffffffffffffffffffff16304760107f000000000000000000000000000000000000000000000000000000000000000060075482805480602002602001604051908101604052809291908181526020016000905b82821015610c3957838290600052602060002090600602016040518060c0016040529081600082015481526020016001820154815260200160028201548152602001600382015481526020016004820154815260200160058201548152505081526020019060010190610bcb565b505050509250965096509650965096509650965090919293949596565b6000806000806000806000610c6961110c565b925092509250600083905060006305f5e1008a83610c879190611cf7565b610c919190611d80565b905080828585985098509850985050505050509193509193565b7f000000000000000000000000000000000000000000000000000000000000000060055442610cda9190611db1565b118015610cea5750600754600654105b8015610d035750600860009054906101000a900460ff16155b15610e5657426005819055506000610d3a600f60065481548110610d2a57610d29611de5565b5b90600052602060002001546111bd565b9050610d4581611247565b60075460065410610e20576000600360009054906101000a900473ffffffffffffffffffffffffffffffffffffffff1673ffffffffffffffffffffffffffffffffffffffff1647604051610d9890611bb5565b60006040518083038185875af1925050503d8060008114610dd5576040519150601f19603f3d011682016040523d82523d6000602084013e610dda565b606091505b5050905080610e1e576040517f08c379a0000000000000000000000000000000000000000000000000000000008152600401610e1590611e60565b60405180910390fd5b505b600754600654101580610e335750600047145b15610e54576001600860006101000a81548160ff0219169083151502179055505b505b565b60007f000000000000000000000000000000000000000000000000000000000000000060055442610e899190611db1565b118015610e995750600754600654105b8015610eb25750600860009054906101000a900460ff16155b905090565b6000600160009054906101000a900473ffffffffffffffffffffffffffffffffffffffff1673ffffffffffffffffffffffffffffffffffffffff163373ffffffffffffffffffffffffffffffffffffffff161480610f625750600260009054906101000a900473ffffffffffffffffffffffffffffffffffffffff1673ffffffffffffffffffffffffffffffffffffffff163373ffffffffffffffffffffffffffffffffffffffff16145b80610fba5750600460009054906101000a900473ffffffffffffffffffffffffffffffffffffffff1673ffffffffffffffffffffffffffffffffffffffff163373ffffffffffffffffffffffffffffffffffffffff16145b610fc357600080fd5b600360009054906101000a900473ffffffffffffffffffffffffffffffffffffffff16905090565b6000600160009054906101000a900473ffffffffffffffffffffffffffffffffffffffff1673ffffffffffffffffffffffffffffffffffffffff163373ffffffffffffffffffffffffffffffffffffffff1614806110965750600260009054906101000a900473ffffffffffffffffffffffffffffffffffffffff1673ffffffffffffffffffffffffffffffffffffffff163373ffffffffffffffffffffffffffffffffffffffff16145b806110ee5750600460009054906101000a900473ffffffffffffffffffffffffffffffffffffffff1673ffffffffffffffffffffffffffffffffffffffff163373ffffffffffffffffffffffffffffffffffffffff16145b6110f757600080fd5b600860019054906101000a900460ff16905090565b60008060008060008060008054906101000a900473ffffffffffffffffffffffffffffffffffffffff1673ffffffffffffffffffffffffffffffffffffffff1663feaf968c6040518163ffffffff1660e01b815260040160a060405180830381865afa158015611180573d6000803e3d6000fd5b505050506040513d601f19601f820116820180604052508101906111a49190611ef7565b5093505092509250818382955095509550505050909192565b6111c56114ec565b600082905060008060006111d761110c565b9250925092506000836305f5e100866111f09190611cf7565b6111fa9190611d80565b905060006040518060c001604052808381526020014281526020018681526020018569ffffffffffffffffffff168152602001848152602001898152509050809650505050505050919050565b4781600001511115611391576000600160009054906101000a900473ffffffffffffffffffffffffffffffffffffffff1673ffffffffffffffffffffffffffffffffffffffff164760405161129b90611bb5565b60006040518083038185875af1925050503d80600081146112d8576040519150601f19603f3d011682016040523d82523d6000602084013e6112dd565b606091505b5050905080611321576040517f08c379a000000000000000000000000000000000000000000000000000000000815260040161131890611fbe565b60405180910390fd5b6010829080600181540180825580915050600190039060005260206000209060060201600090919091909150600082015181600001556020820151816001015560408201518160020155606082015181600301556080820151816004015560a082015181600501555050506114cf565b6000600160009054906101000a900473ffffffffffffffffffffffffffffffffffffffff1673ffffffffffffffffffffffffffffffffffffffff1682600001516040516113dd90611bb5565b60006040518083038185875af1925050503d806000811461141a576040519150601f19603f3d011682016040523d82523d6000602084013e61141f565b606091505b5050905080611463576040517f08c379a000000000000000000000000000000000000000000000000000000000815260040161145a90611fbe565b60405180910390fd5b6010829080600181540180825580915050600190039060005260206000209060060201600090919091909150600082015181600001556020820151816001015560408201518160020155606082015181600301556080820151816004015560a082015181600501555050505b6001600660008282546114e29190611fde565b9250508190555050565b6040518060c001604052806000815260200160008152602001600081526020016000815260200160008152602001600081525090565b600073ffffffffffffffffffffffffffffffffffffffff82169050919050565b600061154d82611522565b9050919050565b61155d81611542565b82525050565b60006020820190506115786000830184611554565b92915050565b6000819050919050565b6115918161157e565b82525050565b60008115159050919050565b6115ac81611597565b82525050565b6115bb8161157e565b82525050565b60c0820160008201516115d760008501826115b2565b5060208201516115ea60208501826115b2565b5060408201516115fd60408501826115b2565b50606082015161161060608501826115b2565b50608082015161162360808501826115b2565b5060a082015161163660a08501826115b2565b50505050565b600081519050919050565b600082825260208201905092915050565b6000819050602082019050919050565b600061167483836115b2565b60208301905092915050565b6000602082019050919050565b60006116988261163c565b6116a28185611647565b93506116ad83611658565b8060005b838110156116de5781516116c58882611668565b97506116d083611680565b9250506001810190506116b1565b5085935050505092915050565b600081519050919050565b600082825260208201905092915050565b6000819050602082019050919050565b60c08201600082015161172d60008501826115b2565b50602082015161174060208501826115b2565b50604082015161175360408501826115b2565b50606082015161176660608501826115b2565b50608082015161177960808501826115b2565b5060a082015161178c60a08501826115b2565b50505050565b600061179e8383611717565b60c08301905092915050565b6000602082019050919050565b60006117c2826116eb565b6117cc81856116f6565b93506117d783611707565b8060005b838110156118085781516117ef8882611792565b97506117fa836117aa565b9250506001810190506117db565b5085935050505092915050565b60006102208201905061182b600083018f611554565b611838602083018e611554565b611845604083018d611554565b611852606083018c611588565b61185f608083018b611588565b61186c60a083018a6115a3565b61187960c08301896115a3565b61188660e0830188611588565b611894610100830187611588565b6118a26101208301866115c1565b8181036101e08301526118b5818561168d565b90508181036102008301526118ca81846117b7565b90509d9c50505050505050505050505050565b60006020820190506118f260008301846115a3565b92915050565b600080fd5b61190681611542565b811461191157600080fd5b50565b600081359050611923816118fd565b92915050565b60006020828403121561193f5761193e6118f8565b5b600061194d84828501611914565b91505092915050565b600060e08201905061196b600083018a611554565b6119786020830189611554565b6119856040830188611554565b6119926060830187611588565b81810360808301526119a481866117b7565b90506119b360a0830185611588565b6119c060c0830184611588565b98975050505050505050565b6119d58161157e565b81146119e057600080fd5b50565b6000813590506119f2816119cc565b92915050565b600060208284031215611a0e57611a0d6118f8565b5b6000611a1c848285016119e3565b91505092915050565b600069ffffffffffffffffffff82169050919050565b611a4481611a25565b82525050565b6000608082019050611a5f6000830187611588565b611a6c6020830186611588565b611a796040830185611a3b565b611a866060830184611588565b95945050505050565b6000606082019050611aa46000830186611588565b611ab16020830185611a3b565b611abe6040830184611588565b949350505050565b600060c082019050611adb60008301846115c1565b92915050565b600082825260208201905092915050565b7f4f6e6c792074686520547275737465652063616e206c6971756964617465207460008201527f6865207472757374000000000000000000000000000000000000000000000000602082015250565b6000611b4e602883611ae1565b9150611b5982611af2565b604082019050919050565b60006020820190508181036000830152611b7d81611b41565b9050919050565b600081905092915050565b50565b6000611b9f600083611b84565b9150611baa82611b8f565b600082019050919050565b6000611bc082611b92565b9150819050919050565b7f4661696c656420746f206c697175696461746500000000000000000000000000600082015250565b6000611c00601383611ae1565b9150611c0b82611bca565b602082019050919050565b60006020820190508181036000830152611c2f81611bf3565b9050919050565b7f4f6e6c7920746865205472757374656520697320616c6c6f77656420746f206360008201527f68616e6765207468652054727573746565206164647265737300000000000000602082015250565b6000611c92603983611ae1565b9150611c9d82611c36565b604082019050919050565b60006020820190508181036000830152611cc181611c85565b9050919050565b7f4e487b7100000000000000000000000000000000000000000000000000000000600052601160045260246000fd5b6000611d028261157e565b9150611d0d8361157e565b9250817fffffffffffffffffffffffffffffffffffffffffffffffffffffffffffffffff0483118215151615611d4657611d45611cc8565b5b828202905092915050565b7f4e487b7100000000000000000000000000000000000000000000000000000000600052601260045260246000fd5b6000611d8b8261157e565b9150611d968361157e565b925082611da657611da5611d51565b5b828204905092915050565b6000611dbc8261157e565b9150611dc78361157e565b925082821015611dda57611dd9611cc8565b5b828203905092915050565b7f4e487b7100000000000000000000000000000000000000000000000000000000600052603260045260246000fd5b7f4661696c656420746f207061796f75742062656e656669636961727900000000600082015250565b6000611e4a601c83611ae1565b9150611e5582611e14565b602082019050919050565b60006020820190508181036000830152611e7981611e3d565b9050919050565b611e8981611a25565b8114611e9457600080fd5b50565b600081519050611ea681611e80565b92915050565b6000819050919050565b611ebf81611eac565b8114611eca57600080fd5b50565b600081519050611edc81611eb6565b92915050565b600081519050611ef1816119cc565b92915050565b600080600080600060a08688031215611f1357611f126118f8565b5b6000611f2188828901611e97565b9550506020611f3288828901611ecd565b9450506040611f4388828901611ee2565b9350506060611f5488828901611ee2565b9250506080611f6588828901611e97565b9150509295509295909350565b7f4661696c656420746f2073656e64204574686572000000000000000000000000600082015250565b6000611fa8601483611ae1565b9150611fb382611f72565b602082019050919050565b60006020820190508181036000830152611fd781611f9b565b9050919050565b6000611fe98261157e565b9150611ff48361157e565b9250827fffffffffffffffffffffffffffffffffffffffffffffffffffffffffffffffff0382111561202957612028611cc8565b5b82820190509291505056fea2646970667358221220819634ce3bc6c80414c471ce5375c94e5716deb45f415c9616a27a2f39b5461e64736f6c634300080b0033",
  "linkReferences": {},
  "deployedLinkReferences": {}
}